:100000000A128A11E82F64008001840A0406031989
:100010000034040604287008F4007108F50075081F
:1000200083120313FF00740884000A128A1500204B
:100030000A128A11003A031922280130F407031822
:10004000F50A0F287009F2007109F300F20A03198A
:10005000F30A74087207F00075080318750A73072D
:10006000F1000800F501F601700871040319692810
:10007000F701F70AF11B482801300310F00DF10DCC
:10008000FF3E031D3D280130F4007408F7073A28AD
:1000900001300310F50DF60DFF3E031D49287108D0
:1000A0007302031D552870087202031C5E28700835
:1000B000F2027108031CF303F302751401300310FC
:1000C000F10CF00CFF3E031D5F280130F702031D09
:1000D00048287608F1007508F0000800F601F301E1
:1000E000F4010A128A1538260A128A11F2007208DF
:1000F000F5000130F3070318F40A0030F40776081E
:100100007007840071080318710A83120313FF003B
:100110000A128A1500200A128A117506031D9528F5
:100120000130F2007208F6079628F601760870078B
:10013000840071080318710AFF000A128A15002052
:100140000A128A11003A031D71287408F10073081D
:10015000F0000800FA01FB017A087507F80076083C
:10016000F7000318F70AFA1BF7037708F900790874
:1001700083120313FF00780884000A128A150020F6
:100180000A128A11003A031908007A087507F80064
:100190007608F7000318F70AFA1BF7037708F90047
:1001A000790883120313FF00780884000A128A1565
:1001B00000200A128A110A128A15C7270A128A1108
:1001C0000130FA070318FB0A0030FB07AC28F700E0
:1001D0007703031D0C2974087F3EF5007508FA00AB
:1001E0007A08F50004300310F50CFF3E031DF328D8
:1001F0007508F6007608F8007A080F39F5007508DA
:10020000F90078080A128A15C5260A128A11790897
:100210000A128A15C526080002307706031D080059
:100220007408BF3EF5007508FA007A08F50004303E
:100230000310F50CFF3E031D18297508F60076081B
:10024000F8007A080F39F5007508F90078080A12E5
:100250008A15C5260A128A1179080A128A15C52636
:10026000080000300A128A15AB260A128A1148309B
:10027000F500CF30F400F40B3B29F50B3B2903309C
:100280000A128A15C5260A128A111230F500F330B7
:10029000F400F40B4929F50B492903300A128A1599
:1002A000C5260A128A112830F5007D30F400F40BBF
:1002B0005729F50B57295C2903300A128A15C526E0
:1002C0000A128A1102300A128A15C5260A128A11E8
:1002D00002300A128A15C5260A128A1108300A123B
:1002E0008A15C5260A128A1100300A128A15C526F7
:1002F0000A128A110C300A128A15C5260A128A11AE
:1003000000300A128A15C5260A128A1106300A120E
:100310008A15C5260800FD007D088400203083135F
:100320000006031D98290130F8007808FD078C2984
:100330007D0884000930000603199329FB01FC01A4
:10034000FA017D0884002D300006031DAC29013020
:10035000F8007808FA07B2297D0884002B300006DF
:10036000031DB6290130F8007808FD077D088400D8
:1003700000080A128A1567260A128A11031CE0294E
:100380007C08F1007B08F0000A30F2000030F30036
:100390000A128A15FD260A128A117D088400831329
:1003A00000087007F80071080318710AF90078084E
:1003B000D03EFB0079080318013EFF3EFC00B22945
:1003C0007A080319EF297B09F8007C09F900F80A7B
:1003D0000319F90A7808F6007908F70008007C0884
:1003E000F7007B08F60008003E30840083160313F4
:1003F000280883138000840A29088000840A2A08B8
:100400008000840A2B088000840A2C088000840A5B
:100410002D0880000C3083120313A0008A30A10045
:100420003C08F0003D08F1000A128A110B200A1264
:100430008A11710883120313A3007008A2003E30D2
:100440000A128A1115240A128A11CF30F10088305D
:10045000F2000A128A1541270A128A113E30F10071
:100460000030F2000A128A1541270A128A11DC3084
:10047000F1008930F2000A128A1541270A128A1106
:100480000A128A1538260A128A113E3A031D402A9A
:10049000831203133C08F1003D08F2000A128A158A
:1004A00041270A128A110A128A117E230A128A111E
:1004B000013A031D5D2A031408000310080083128B
:1004C0000313A101F31F712AF009F109F209F309DD
:1004D000F00A0319F10A0319F20A0319F30AA10138
:1004E000A10AF71F822AF409F509F609F709F40AA7
:1004F0000319F50A0319F60A0319F70A0130F8007F
:100500007808A1060030A5000030A4000030A30048
:100510000030A20073087204710470040319D72A12
:10052000A001A00AF31BA22A0130F8000310F00D6D
:10053000F10DF20DF30DF80B962A0130F800780852
:10054000A007922A0130F8000310A20DA30DA40DFC
:10055000A50DF80BA42A73087702031DB92A7208A7
:100560007602031DB92A71087502031DB92A7008A5
:100570007402031CCA2A7008F4027108031C710F6C
:10058000F5027208031C720FF6027308031C730F46
:10059000F702221401300310F30CF20CF10CF00CF2
:1005A000FF3E031DCB2A0130A002031DA22A210811
:1005B0000319E52AA209A309A409A509A20A031996
:1005C000A30A0319A40A0319A50A2508F30024089D
:1005D000F2002308F1002208F00008008312031340
:1005E000A900B830F0008930F1000A128A116E209B
:1005F0000A128A1183120313AE01AF01AC01AD01DF
:10060000AA01AB0183160313360883120313A80053
:1006100083160313350883120313A70083160313ED
:10062000340883120313A6008316031333088312BE
:100630000313A500A4010A128A1538260A128A118A
:1006400083120313A2002E08253E84002208831380
:1006500080002E08253E84000008A2002208A40085
:100660002E08253E84003A300006031D3B2B2E0841
:10067000253E840080010130AE070318AF0A003028
:10068000AF073A302406031D1B2B25300A128A11AE
:100690008B210A128A11770883120313AB007608A4
:1006A000AA002B08A1002A08A000AC01AD012A086D
:1006B000FE3EA2002B080318013EFF3EA3002308C4
:1006C0002D02031D652B22082C02031808000A12B4
:1006D0008A1538260A128A1183120313A2002C08E5
:1006E0002907A30023088400220883138000013017
:1006F000AC070318AD0A0030AD07572B303084002B
:10070000A030F0000408F1000830F2007008840006
:1007100083130008F300F00A710884007308800056
:10072000F10AF20B862B20308400B730F000040869
:10073000F1001030F2007008840083130008F30009
:10074000F00A7108840073088000F10AF20B9B2BF9
:1007500083120313BA01BA0A3A080319132C0A12B6
:100760008A1538260A128A11F000700883120313C2
:10077000B800BB0108303B020318AC2B3B08F0006B
:100780007007203E840083130008F100840A0008EB
:10079000F2003B08303E84000008710784007208B4
:1007A0000318720AFF000A128A1500200A128A1121
:1007B0003806031D092C0130F0003B08303E840050
:1007C0007008831380073B08243E84008830031898
:1007D000013EFF000A128A1500200A128A11F00059
:1007E0003B08303E8400831300087006031D0E2C66
:1007F0003B081C3E840088300318013EFF000A12AB
:100800008A1500200A128A11F0007008B900BA0196
:100810000E2C3B08303E8400831380010130F00031
:100820007008BB07BA2B3908080083120313AC0009
:100830002230A4002408A8002108A5002008A40054
:10084000A00A0319A10A2508FF00240884000A123F
:100850008A1500200A128A11A6002608AD002D086C
:100860000319E12C25302D060319422C2D08A40074
:100870002C0884002408831380000130A40024087D
:10088000AC071C2CA701492CC030A4002408A704E5
:10089000612C2108A5002008A400A00A0319A10AC0
:1008A0002508FF00240884000A128A1500200A1275
:1008B0008A11AD00003A0319E12C753A0319442C52
:1008C0001C2C2808840083130008A900840A00084F
:1008D000AA000230A4002408A807AD01AD0A053023
:1008E0002D060319982C2D08A4002407123E84001D
:1008F00088300318013EFF000A128A1500200A12F0
:100900008A11A5000A128A1500200A128A11A6006F
:1009100026082A02031D8E2C25082902031C982C68
:100920000130A4002408AD0705302D06031D732CEB
:100930002D08A4002408AB00FF30A4002408AB0756
:100940002B0A03191C2C0A30F8000030F9002B0880
:10095000A4002407123E840088300318013EFF00E3
:100960000A128A1500200A128A11F0000A128A154A
:1009700000200A128A11F1002A08F3002908F20067
:100980000A128A1132200A128A117108FB007008BB
:10099000FA000A128A1595270A128A117808303E41
:1009A00083120313A5002508AD002D08A4002C0810
:1009B00084002408831380000130A4002408AC07BD
:1009C0009C2C2C08840083138001080083120313DD
:1009D0002608AA002708AB002808AC002908AD00AB
:1009E00006300310AA0DAB0DAC0DAD0DFF3E031D7F
:1009F000F12C2D08F3002C08F2002B08F1002A0836
:100A0000F0000030AE00C030AF00A830B0000030C1
:100A1000B1002608B2002708B3002808B40029084E
:100A2000B50006300310B20DB30DB40DB50DFF3E89
:100A3000031D122DB209B309B409B509B20A03198D
:100A4000B30A0319B40A0319B50A3208AE0733080A
:100A50000318330F2C2D2D2DAF0734080318340F36
:100A6000322D332DB00735080318350AB107310888
:100A7000F7003008F6002F08F5002E08F4000A12DF
:100A80008A115F220A128A117108FA007008F900AF
:100A900001307A02003003197902031CB42D83124D
:100AA00003132608AA002708AB002808AC00290871
:100AB000AD0004300310AA0DAB0DAC0DAD0DFF3E23
:100AC000031D5A2D2D08F3002C08F2002B08F1000D
:100AD0002A08F0000030AE00C030AF00A830B000EF
:100AE0000030B1002608B2002708B3002808B4007F
:100AF0002908B50004300310B20DB30DB40DB50DC7
:100B0000FF3E031D7B2DB209B309B409B509B20A32
:100B10000319B30A0319B40A0319B50A3208AE0758
:100B200033080318330F952D962DAF07340803189B
:100B3000340F9B2D9C2DB00735080318350AB107DB
:100B40003108F7003008F6002F08F5002E08F400F1
:100B50000A128A115F220A128A117108FA007008BB
:100B6000F90083160313181501307A0200300319B7
:100B700079020318080079088316031399001812E4
:100B8000831203139817831603138717071783120B
:100B900003131816831603139816080083160313FD
:100BA000880183120313EB01EC01E701E801E9017D
:100BB000EA010A128A1131210A128A1100308312C5
:100BC0000313A9000030A8002530A7008030A6003C
:100BD0000A128A11E6240A128A11F401F40A013079
:100BE0000A128A11E7200A128A11DD30F5008830D6
:100BF000F6000A128A11AA200A128A11F401F40AD4
:100C000002300A128A11E7200A128A115230F500C6
:100C10008830F6000A128A11AA200A128A111630A8
:100C200083120313C6000A30C500E830C400C40BA9
:100C3000172EC50B172EC60B172E00000A128A1589
:100C400042260A128A11F401F40A01300A128A11AA
:100C5000E7200A128A11F930F5008830F6000A12EE
:100C60008A11AA200A128A110A128A1596260A12D5
:100C70008A11031C232EF401F40A01300A128A118E
:100C8000E7200A128A116330F5008830F6000A1254
:100C90008A11AA200A128A11163083120313C60081
:100CA0000A30C500E830C400C40B542EC50B542EC6
:100CB000C60B542E00000A128A155A260A128A11EF
:100CC000F401F40A02300A128A11E7200A128A118A
:100CD0008430F5008830F6000A128A11AA200A1220
:100CE0008A11163083120313C6000A30C500E8309B
:100CF000C400C40B792EC50B792EC60B792E0000CB
:100D00000A128A1542260A128A1103300A128A151B
:100D1000DF260A128A11F401F40A01300A128A113C
:100D2000E7200A128A119430F5008830F6000A1282
:100D30008A11AA200A128A11163083120313C600E0
:100D40000A30C500E830C400C40BA42EC50BA42E85
:100D5000C60BA42E00000A128A154D260A128A110B
:100D6000F401F40A02300A128A11E7200A128A11E9
:100D70004030F5008830F6000A128A11AA200A12C3
:100D80008A11163083120313C6000A30C500E830FA
:100D9000C400C40BC92EC50BC92EC60BC92E00003A
:100DA0000A128A1542260A128A110B30F400893081
:100DB000F500AA30F6008830F7000A128A15642779
:100DC0000A128A11F401F40A01300A128A11E7208A
:100DD0000A128A110730F5008930F6000A128A11CA
:100DE000AA200A128A11F401F40A02300A128A11A6
:100DF000E7200A128A11A430F5008830F6000A12A2
:100E00008A11AA200A128A11163083120313C6000F
:100E10000A30C500E830C400C40B0C2FC50B0C2FE2
:100E2000C60B0C2F00000A128A1542260A128A11DC
:100E3000F401F40A01300A128A11E7200A128A1119
:100E4000EB30F5008830F6000A128A11AA200A1247
:100E50008A11F401F40A02300A128A11E7200A12F8
:100E60008A116230F5008930F6000A128A11AA2030
:100E70000A128A110A128A117E230A128A11073A6B
:100E8000031DC62F83120313EB01EC016C08803A9B
:100E9000FF0080307F02031D4F2F10306B020318BC
:100EA0006D2F831203136B08473E84008313800168
:100EB0006B08573E840080010130EB070318EC0AF1
:100EC0000030EC076C08803AFF0080307F02031D81
:100ED0006B2F10306B02031C512F0A128A15422609
:100EE0000A128A11F401F40A01300A128A11E72069
:100EF0000A128A111F30F5008930F6000A128A1191
:100F0000AA200A128A119E3083120313BC00893072
:100F1000BD000A128A11F4210A128A11031C722FD1
:100F2000831203136808A1006708A00047300A1263
:100F30008A11EE220A128A11F401F40A02300A120E
:100F40008A11E7200A128A111330F5008930F60061
:100F50000A128A11AA200A128A11953083120313E9
:100F6000BC008930BD000A128A11F4210A128A11CC
:100F7000031C9C2F831203136A08A1006908A000B8
:100F800057300A128A11EE220A128A110A128A15A1
:100F900042260A128A11F401F40A01300A128A1157
:100FA000E7200A128A114730F5000030F6000A12D5
:100FB0008A11AA200A128A11F401F40A02300A12D4
:100FC0008A11E7200A128A115730F5000030342FB9
:100FD0008313C730FD000E30FE007530FF00B730C0
:100FE00084000A128A1589260A128A11A030840008
:100FF000B7300A128A11032083010A128A11CE2DFA
:10100000FF1B0A2883137F1883170008840A03191B
:10101000FF0A08007F087F398A000408840A031940
:10102000FF0A8200013400340A340034643400348E
:10103000E8340334103427340134023403340434E4
:1010400005340634073408340234053404340934D2
:101050000634063409340934413454342B344334CF
:101060004934503453344534523456344534523470
:101070003D3431342C34383430340D340A340034B7
:10108000453453345034203473346534743420344C
:101090006134733420347334653472347634653497
:1010A00072340034453453345034383432343634A6
:1010B000363420347734693474346834203450340E
:1010C0004934433400344534533450342034693483
:1010D0007334203463346F346E346E346534633467
:1010E0007434653464340034413454342B34433420
:1010F0004934503443344C344F34533445343D3404
:1011000031340D340A34003445346E346134623481
:101110006C34653420346D3475346C347434693413
:1011200070346C34653400344534533450342034D6
:10113000733465347434203461347334203444346B
:10114000753461346C340034503461347334733426
:101150003A34203431343234333434343534363460
:10116000373438340034413454342B344334493424
:1011700050344D34553458343D3431340D340A3400
:101180000034413454342B344334493450345334D0
:1011900054344134523454343D34223400344134D4
:1011A00054342B34433449345034533445344E345E
:1011B00044343D3430342C34003448346F3461349A
:1011C0006E3467346E346C34313434343134373403
:1011D00038343234003441345034203463346F3482
:1011E0006E3466346934673475347234653464340B
:1011F000003445345334503420346E346F347434F6
:10120000203466346F3475346E34643400344934B9
:1012100044343A342034453453345034383432343E
:1012200036343634003432342E3420344E3468347C
:1012300061347034203447346934613400343134DB
:101240002E3420344E3468346134703420345434B5
:1012500065346E340034413454342B3443345734C1
:101260004C34493446340D340A3400344134543457
:101270002B34433457345134413450340D340A3410
:101280000034413454342B344334493446345334D9
:1012900052340D340A340034413454342B34433442
:1012A00057344A34413450343D34223400344134CC
:1012B00054342B34433457345334413450343D3454
:1012C00022340034573461346934743469346E34F0
:1012D00067342E342E342E340034413454342B34BD
:1012E000433457344D344F34443445343D34003462
:1012F00030342C3443344F344E344E34453443343C
:10130000543400346E346F342034633468346134C0
:101310006E34673465340034413454342B345234E1
:10132000533454340D340A34003432342E342034DF
:101330004734693461340D340A34003431342E3486
:101340002034543465346E340D340A34003430346F
:101350002C3443344C344F34533445344434003407
:1013600022342C3435342C3433340D340A340034E4
:101370002B344934503444342C3430342C3400343D
:101380004C3469346E346B34653464340034553411
:101390006E346C3469346E346B3400342B3449341D
:1013A000503444342C340034723465346134643441
:1013B000793400340D340A340D340A3400344134A5
:1013C00054340D340A3400344D34413443343A3407
:1013D00000344634413449344C34003422340D3422
:1013E0000A34003422342C3422340034493450344A
:1013F0003A340034413454344534003454344334A2
:1014000050340034553444345034003422342C34B5
:0E14100000344F344B3400342534753400342E
:101C6000F000831203130C1E312E70089900080037
:101C700083120313981C3E2E181218168C1E3E2E2B
:101C80001A08080000300A128A15C5260A128A1599
:101C900001300A128A15C52608002C30F100883060
:101CA000F2000A128A151E270A128A150A128A11D0
:101CB0007E230800B330F1008830F2000A128A1542
:101CC0001E270A128A150A128A117E230800F100C3
:101CD000F0013A3071020318732E30307102031C88
:101CE000732EF001F00A700C080009348A34D434E1
:101CF0008934E934893482348934C0348934C7342E
:101D0000893478348934A73489347E088A007F087E
:101D1000820085260A128A158000840A04087D063E
:101D200003190034FF0A0319FE0A892EDF30F1007F
:101D30008930F2000A128A1541270A128A150A12FE
:101D40008A117E230A128A15013A0319A92E03105B
:101D5000080003140800F000701CB22E8312031355
:101D60008816B52E831203138812F01CB92E08169C
:101D7000BA2E0812701DBE2E8815BF2E8811F01DB8
:101D8000C32E0815080008110800F300831203137E
:101D9000881373080A128A15AB260A128A15831251
:101DA000031308170F30F2005B30F100F10BD62E51
:101DB000F20BD62E00008312031308130800F40060
:101DC0006D30F1008930F2000A128A1541270A129B
:101DD0008A157408303E0A128A1530260A128A15AE
:101DE000DC30F1008930F2000A128A1541270A120C
:101DF0008A150A128A117E230800F401F501701C6D
:101E0000072F7208F4070318F50A7308F507013065
:101E10000310F20DF30DFF3E031D082F01300310D8
:101E2000F10CF00CFF3E031D0F2F70087104031D11
:101E3000FF2E7508F1007408F00008007208831284
:101E40000313FF00710884000A128A1500200A1289
:101E50008A15003A03190800720883120313FF0061
:101E6000710884000A128A1500200A128A150A12C3
:101E70008A1530260A128A150130F1070318F20A72
:101E80001E2F720883120313FF00710884000A12C8
:101E90008A1500200A128A15003A031908007208F0
:101EA00083120313FF00710884000A128A150020B0
:101EB0000A128A150A128A1530260A128A1501306A
:101EC000F1070318F20A412F5730F1008930F20070
:101ED0000A128A1541270A128A157408F10075083A
:101EE000F2000A128A1541270A128A15F230F1000F
:101EF0008930F2000A128A1541270A128A157608DB
:101F0000F1007708F2000A128A1541270A128A1591
:101F1000B030F1008930F2000A128A1541270A1206
:101F20008A150A128A117E23080078087904031999
:101F3000C22FFD01FD0AF91BA92F01300310F80D76
:101F4000F90DFF3E031D9E2F0130FC007C08FD07AC
:101F50009B2F79087B02031DAF2F78087A02031CA0
:101F6000B72F7808FA027908031CFB03FB02013043
:101F70000310F90CF80CFF3E031DB82F0130FD02D1
:101F8000031DA92F7B08F9007A08F8000800F40067
:101F900074080F39F1007108F2007408F039F1008B
:101FA0007108F3008312031388177308F1000430DB
:101FB0000310F10CFF3E031DD82F71080A128A1579
:101FC000AB260A128A158312031308172430F10076
:101FD000F10BE82F000083120313081372080A1292
:101FE0008A15AB260A128A158312031308172430A8
:101FF000F100F10BF92F00008312031308130800FE
:04400E00F2EFFFFFCF
:00000001FF
