S00F00005379737469636B2E737265632B
S113A0000060002075A40000D3A40000DFA40000B9
S113A010000000000000000000000000000000003C
S113A02000000000000000000000000085A5000002
S113A030000000000000000087A500009DA10000B2
S113A0401DA5000025A500002DA5000035A50000D4
S113A0507DA500007DA500007DA500007DA5000074
S113A0603DA5000045A500004DA5000055A5000034
S113A0705DA5000065A500006DA500007DA500009C
S113A0807DA500007DA500007DA500007DA5000044
S113A0907DA500007DA500007DA5000075A500003C
S113A0A07DA500007DA500007DA500007DA5000024
S113A0B07DA500007DA500007DA500007DA5000014
S113A0C01B480168C02292010A43026080204000BC
S113A0D018490A6802430A6017490A68104308606D
S113A0E0202016490A6802430A6080218905144A1F
S113A0F013680B431360134A136818431060124823
S113A100026811430160704700B5010000204A1E37
S113A11080235B049A4200D30120491E0B4A11603C
S113A1200B490A68072313430B60C0B200BD00004B
S113A1303880044014C0044074D00440D4F00F406C
S113A14014F10F40C4F00F4004F10F4014E000E09C
S113A15010E000E080B5FFF7B3FF1548FFF7D4FF28
S113A160C0B2012800D1FEE712480188FA22920009
S113A170914207D110490A6880239B0513430B6061
S113A180002101800D480188A729EDD10C490A68F6
S113A190202313430B6000210180E5E70548018873
S113A1A0491C018005480188491C01807047000052
S113A1B0EB51000000E0FF1F0CF10F4002E0FF1F15
S107A1C0CCF00F408C
S113A400FFFFFFFFFFFFFFFFFFFFFFFFFEFFFFFF59
S113A41070B40123002413E00168001D194202D026
S113A4204D466D1E49190C60091D121F042AFAD2EB
S113A4300D00960701D50C80AD1C1A4000D02C707D
S113A4400268001D002AE7D170BC704710B50749A7
S113A45079441831064C7C44163404E0081D0A681B
S113A460891888470100A142F8D110BD2C000000D2
S113A4703800000072B6044804490160044880476B
S113A48062B604480047000008ED00E000A00000A8
S113A49011A50000F5A4000079FFFFFF04000000EF
S113A4A000E0FF1F0000000000F00DF8002801D0BC
S113A4B0FFF7CCFF00BF00BF002000BF00BFFFF7C5
S113A4C049FE00F002F80120704780B500F002F860
S113A4D001BDFEE70746384600F002F8FBE7FEE759
S113A4E080B500BF00BF024A11001820ABBEFBE7D5
S113A4F0260002000548014603B4684680F3098833
S113A50000BF00BF00BF00BFFFF7CEFFA5EDF5FE03
S113A510002001490860704700810440004800475A
S113A5207DA50000004800477DA5000000480047C5
S113A5307DA50000004800477DA5000000480047B5
S113A5407DA50000004800477DA5000000480047A5
S113A5507DA50000004800477DA500000048004795
S113A5607DA50000004800477DA500000048004785
S113A5707DA50000004800477DA500000048004775
S10BA5807DA50000FEE7FEE7E3
S903A4F563
