S00E00004D6F636B49492E73726563FA
S113000038F0FF1F750A0000BF040000E706000077
S113001000000000000000000000000000000000DC
S1130020000000000000000000000000F30A0000CF
S11300300000000000000000FF0A0000CD0B0000DB
S11300406D0B0000750B00007D0B0000850B00009C
S1130050C50B0000C50B0000C50B0000C50B00005C
S11300608D0B0000950B00009D0B0000A50B0000FC
S11300707F020000AD0B0000B50B0000C50B0000B3
S1130080C50B0000C50B0000C50B0000C50B00002C
S1130090C50B0000C50B0000C50B0000BD0B000024
S11300A0C50B0000C50B0000C50B0000C50B00000C
S11300B0C50B0000C50B0000C50B0000C50B0000FC
S11300C00121C006C00E81407F4801607047F1B530
S11300D081B01F2420000026F64339E0A0256D04DA
S11300E0280001992200D2B2521C514300F090F929
S11300F00700002F00D1012728002100C9B2491CA4
S1130100794300F085F90199401AB04208D2802160
S113011089018F4204D206006C4807606C48047061
S11301207F1C0199009128002100C9B2491C794320
S113013000F06EF90099081AB04208D280218901B2
S11301408F4204D206006148076061480470641E4F
S11301502000C0B20328C1D2F3BD00B55D490978BF
S11301604906FBD55C49087000BDF8B5FFF7AFFF41
S11301701F20564A1168090A014012686B461A701A
S113018080229200554B1C6814431C60544B554C00
S113019025681D402560256815432560524C256857
S11301A02B40236023681A432260504A136880243A
S11301B0E4001C4314604E4A13684E4C1C40146007
S11301C013688024E4041C43146013684A4C1C40E4
S11301D01460EF23494C22781A402270FD25484AC6
S11301E016782E401670267835402570DF25454C4C
S11301F026782E402670444E37783D403570357849
S11302001D403570414D2E7833402B70E023157816
S11302101D4015702E4D2D78054015702278134021
S11302202370227808401043207039480178002157
S1130230017001786A4612780A430270354C2078BE
S113024008210143217020780421014321700C20EE
S1130250FFF736FF2078202101432170F1BD38B526
S11302600400002505E02800C0B2205CFFF775FFFC
S11302706D1C2800C0B2205C0028F4D131BD38B513
S113028007E000F01DF920602068002801D100F08B
S113029039F9214C20680028F3D0204D0E4800780D
S11302A021682A88885420682988405C0A2806D155
S11302B000F028F9002020600020288002E028882F
S11302C0401C288031BD000000E100E024E8FF1F4D
S11302D030E8FF1F04A0064007A006403880044011
S11302E0FFF8FFFF04900440089004403480044069
S11302F004800440FFFFFFF3FFFFFEFF02A006405F
S11303000AA0064000A0064005A0064006A006403C
S113031001A0064003A0064028E8FF1F2CE8FF1FA9
S1130400FFFFFFFFFFFFFFFFFFFFFFFFFEFFFFFFF9
S11304100022030A8B420BD203098B4219D24308F0
S11304208B422ED2411A00D20146524110467047E7
S1130430FF2209023FD012068B4205D31212090291
S11304408B4201D31212090203098B4219D300E033
S1130450090AC3098B4201D3CB01C01A5241830953
S11304608B4201D38B01C01A524143098B4201D301
S11304704B01C01A524103098B4201D30B01C01A2C
S11304805241C3088B4201D3CB00C01A52418308A6
S11304908B4201D38B00C01A524143088B4201D3D3
S11304A04B00C01A5241884200D3401A5241CFD265
S11304B001461046704708B500F046F808BDFEE74F
S11304C010B500201D4A1E491378CB18822424013C
S11304D01B5D002B04D1107882229200504308182F
S11304E010BD10B50020174A15491378CB18822483
S11304F024011B5D012B04D1107882229200504309
S1130500081810BD0D4801210D4A0378D218822322
S11305101B01D1540178491C8907890F0170704768
S113052008480021064A0378D21882231B01D154BB
S11305300178491C8907890F017070472EE8FF1F55
S113054000E0FF1F2FE8FF1F704700B50100FF20E8
S11305500A00D2B2303A0A2A02D23039080007E03F
S11305600A00D2B2413A062A02D2C9B23739080087
S1130570C0B200BDF3B583B002240020029004266B
S1130580002503980078532828D103984078FFF772
S1130590DCFF0100C9B200290BD0491E02290AD987
S11305A0C91E0DD0491E01290CD9891E02290ED954
S11305B013E0002412E00124401C694608710DE098
S11305C002240BE00124C01E6946087106E00324DE
S11305D00B21081A6946087100E002242000C0B209
S11305E0012803D02000C0B2032878D10398807872
S11305F0FFF7ABFF07010398C078FFF7A6FF384366
S113060069464871684640792D1800271AE0039816
S11306103100C9B2405CFFF798FF000100900398D5
S11306203100C9B240184078FFF78FFF01000098ED
S11306300143029800020A00D2B2024302926D18EA
S1130640B61C7F1C38006946097980B289B2884299
S1130650DDD30298049908606846407969460979AF
S1130660401A401E0499822252008852002719E041
S113067003983100C9B2405CFFF767FF00010090A6
S113068003983100C9B240184078FFF75EFF0100BB
S11306900098014304983A0092B280180171B61C84
S11306A06D187F1C3800049982225200895A80B246
S11306B08842DDD303983100C9B2405CFFF745FF9F
S11306C02F0005010398F6B280194078FFF73DFF2B
S11306D028433D002818C0B2FF2800D0022420007F
S11306E0C0B205B0F0BDFEE7F0B5C3B000242000F1
S11306F026000127380069460870A0252D0228002D
S113070020002000200000F091F89620C001FFF79F
S11307102CFD3C480068000B0740002F69D1684657
S11307200078012810D13848FFF799FD280000F01F
S113073000F9A420000200F0FCF8A820000200F058
S1130740F8F83248FFF78BFD3148FFF788FD04E0E5
S11307503048FFF784FDFFF7E3FE3000C0B2022803
S11307603CD03000C0B2032838D0FFF7BAFE0028CE
S1130770F3D001A9FFF7FEFE06003000C0B2022844
S1130780E6D02548FFF76BFD01A8041D01A88221CE
S11307904900455A3000C0B20128DCD114E0FF21E1
S11307A00200D2B2A154401E0100C9B22A0009B20B
S11307B012B29142F3DA2100019800F091F8241D5D
S11307C00198001D01902D1F280000B20128C2DBF2
S11307D0280000B20428EEDA0320E5E7F6B2032E7F
S11307E003D10E48FFF73BFD08E00D48FFF737FD46
S11307F004E00C4800680C490D608047002043B0B9
S1130800F0BD00BF90F00F40300B0000440B00001F
S1130810A80A0000640B00005C0B000094090000AF
S1130820D409000004A0000008ED00E030B423481F
S11308300168802212010A43026001688022920149
S11308400A4302601E4A1F48016811400160802368
S11308505B000168194301601B4801681140016095
S113086001681943016019490C6822400A600A684A
S113087013430B6080229205154B1C6814431C60C3
S1130880144B1C680825AC431C601C68124D2540A1
S11308901D60022304681C4304600C6823430B603E
S11308A0012304681C430460086803430B600B487D
S11308B001680A43026030BC704700BF38800440BE
S11308C0FFF8FFFF74D004400CB0044030B0044083
S11308D014F10F4094F00F40FFEFFFFF04F10F40BD
S11308E010B5234A1378002BFBD01378802B01D04A
S11308F03023137006231F4C237003001B0C1E4C63
S11309002370030A1D4C23701D4B1870C8781D4BAF
S1130910187088781C4B187048781C4B187008782D
S11309201B4908708020107010780028FCD001202A
S113093010BD00B50E490A78002AFBD00A78802A37
S113094001D030220A7009220A4B1A700200120CDC
S1130950094B1A70020A094B1A70094A1070802058
S1130960087008780028FCD0012000BD00000000B9
S11309700000024007000240060002400500024059
S1130980040002400B0002400A0002400900024039
S113099008000240537563636565646564212050F3
S11309A06C6561736520726573657420796F757207
S11309B020626F61726420616E642072656C65618F
S11309C0736520424F4F5420627574746F6E0D0A24
S11309D0000000004572726F7221205265736574C5
S11309E020796F757220626F61726420616E642079
S11309F07075736820424F4F5420627574746F6E23
S1130A0020746F206C6F6164204150500D0A000007
S1130A1070B40123002413E00168001D194202D0C0
S1130A204D466D1E49190C60091D121F042AFAD285
S1130A300D00960701D50C80AD1C1A4000D02C7017
S1130A400268001D002AE7D170BC704710B5074941
S1130A5079441831064C7C44163404E0081D0A68B5
S1130A60891888470100A142F8D110BD2C0000006C
S1130A703800000072B60448044901600448804705
S1130A8062B604480047000008ED00E000000000E2
S1130A90510B0000150B000079FFFFFF3408000024
S1130AA000E0FF1F000000000D0A53656E6420790A
S1130AB06F757220535245432066696C653A202E47
S1130AC02E2E0D0A0000000000F00DF8002801D0C1
S1130AD0FFF7BCFF00BF00BF002000BF00BFFFF74F
S1130AE003FE00F002F80120704780B500F002F820
S1130AF001BDFEE70746384600F002F8FBE7FEE7D3
S1130B0080B500BF00BF024A11001820ABBEFBE74E
S1130B10260002000548014603B4684680F30988AC
S1130B2000BF00BF00BF00BFFFF7CEFFA5EDF5FE7D
S1130B3045726173696E6720666C617368202E2E3E
S1130B402E000000446F6E652121210D0A00000073
S1130B500020014908607047008104403E3E0D0AB0
S1130B60000000004572726F720D0A0000480047D1
S1130B70C50B000000480047C50B000000480047B3
S1130B80C50B000000480047C50B000000480047A3
S1130B90C50B000000480047C50B00000048004793
S1130BA0C50B000000480047C50B00000048004783
S1130BB0C50B000000480047C50B00000048004773
S1110BC0C50B000000480047C50B0000FEE70F
S9030B15DC
