:100000000A128A11FC2F00308A000408840A820731
:10001000003448345434543450343A342F342F3468
:100020005834433456344E342E3442344C344F34E6
:100030004734533450344F3454342E3443344F34D3
:100040004D34003420344234593420344C3441345B
:100050004D342034333420344E3447344F344E340E
:100060002034003420344C3443344434203431348C
:100070003634583432342034443445344D344F34DB
:1000800020340034203420345434483441344E3445
:100090004B345334203459344F34553420340034E5
:100BD40000300A128A1125260A128A1101300A12DB
:100BE4008A112526080001300A128A1125260A12C4
:100BF4008A1108300A128A112526080001300A12C7
:100C04008A1125260A128A110C300A128A11252605
:100C14000800F000701C122E831203138816152E80
:100C2400831203138812F01C192E08161A2E0812A8
:100C3400701D1E2E88151F2E8811F01D232E0815D9
:100C4400080008110800F3008312031388137308C3
:100C54000A128A110B260A128A1183120313081727
:100C64000F30F2005B30F100F10B362EF20B362E12
:100C740000008312031308130800F700F501F601BE
:100C84007508770784000A128A1103200A128A1150
:100C9400003A031908007508770784000A128A11BC
:100CA40003200A128A110A128A1161260A128A1171
:100CB4000130F5070318F60A0030F607422EF40057
:100CC40074080F39F1007108F2007408F039F1006A
:100CD4007108F3008312031388177308F1000430BA
:100CE4000310F10CFF3E031D722E71080A128A11C3
:100CF4000B260A128A118312031308172430F100F9
:100D0400F10B822E000083120313081372080A12D7
:100D14008A110B260A128A1183120313081724302E
:100D2400F100F10B932E0000831203130813080043
:100D3400F7007703031DBF2E74087F3EF500750886
:100D4400FA007A08F50004300310F50CFF3E031D89
:100D5400A62E7508F6007608F8007A080F39F50013
:100D64007508F90078080A128A1125260A128A11D0
:100D740079080A128A112526080002307706031D15
:100D840008007408BF3EF5007508FA007A08F500FB
:100D940004300310F50CFF3E031DCB2E7508F6003E
:100DA4007608F8007A080F39F5007508F900780814
:100DB4000A128A1125260A128A1179080A128A113E
:100DC4002526080000300A128A110B260A128A11FD
:100DD4004830F500CF30F400F40BEE2EF50BEE2E78
:100DE40003300A128A1125260A128A111230F500DC
:100DF400F330F400F40BFC2EF50BFC2E03300A1236
:100E04008A1125260A128A112830F5007D30F40053
:100E1400F40B0A2FF50B0A2F0F2F03300A128A1135
:100E240025260A128A1102300A128A1125260A126C
:100E34008A1102300A128A1125260A128A110830F0
:100E44000A128A1125260A128A1100300A128A11FE
:100E540025260A128A110C300A128A1125260A1232
:100E64008A1100300A128A1125260A128A110630C4
:100E74000A128A11252608008316031388010A1210
:100E84008A11E4260A128A110A128A11EA250A1220
:100E94008A11F401F40A01300A128A119A260A12FC
:100EA4008A112A300A128A113F260A128A11F40181
:100EB400F40A02300A128A119A260A128A111A3086
:100EC4000A128A113F260A128A111D30FD000E30C3
:100ED400FC003730FB00FB0B6D2FFC0B6D2FFD0B63
:100EE4006D2F0A128A11EA250A128A11F401F40AF2
:100EF40001300A128A119A260A128A1101300A1242
:100F04008A113F260A128A1183120313A001A10138
:100F1400003021020F30031920020318B22F0530CC
:100F2400FD003630FC002C30FB00FB0B972FFC0B34
:100F3400972FFD0B972F00000A128A11F5250A122C
:100F44008A11013083120313A0070318A10A003089
:100F5400A107003021020F3003192002031C912F36
:100F6400A001A101003021020F300319200203184F
:100F7400DC2F0530FD003630FC002C30FB00FB0B71
:100F8400C12FFC0BC12FFD0BC12F00000A128A11C7
:100F940000260A128A11013083120313A0070318D2
:100FA400A10A0030A107003021020F3003192002EA
:100FB400031CBB2F0A128A11EA250A128A11F401B2
:100FC400F40A02300A128A119A260A128A113A3055
:100FD4000A128A113F260A128A111D30FD000E30B2
:100FE400FC003730FB00FB0BF52FFC0BF52FFD0B42
:0C0FF400F52F462F83010A128A113E2FB0
:04400E00F2EFFFFFCF
:00000001FF
