:020000040800F2
:10000000380400200101000883100008470F000891
:10001000811000086D01000849130008000000006D
:100020000000000000000000000000009B1200081B
:100030006F01000800000000851000089D120008F4
:100040001B0100081B0100081B0100081B01000820
:100050001B0100081B0100081B0100081B01000810
:100060001B0100081B0100081B0100081B01000800
:100070001B0100081B0100081B0100081B010008F0
:100080001B0100081B0100081B0100081B010008E0
:100090001B0100081B0100081B0100081B010008D0
:1000A0001B0100081B0100081B0100081B010008C0
:1000B0001B0100081B0100081B0100081B010008B0
:1000C0001B0100081B0100081B0100081B010008A0
:1000D0001B0100081B0100081B0100081B01000890
:1000E0001B0100081B0100081B010008DFF80CD0F1
:1000F00000F02AF80048004789130008380400205F
:100100000648804706480047FEE7FEE7FEE7FEE7B1
:10011000FEE7FEE7FEE7FEE7FEE7FEE70113000865
:10012000ED000008D2B201E000F8012B491EFBD21D
:1001300070470022F6E710B513460A4604461946F2
:10014000FFF7F0FF204610BD064C074D06E0E068C3
:1001500040F0010394E8070098471034AC42F6D30E
:10016000FFF7C8FFC0140008E0140008FEE770475E
:1001700070B5044600F004F90546601C02D004483E
:100180000078044400F0FCF8401BA042FAD370BD94
:10019000100000202DE9F84FDFF8B891002409F194
:1001A000040A0AF1040B23460F270BF1040EC9E0E1
:1001B0000125A5402A40AA427DD1674ED1F804C04E
:1001C000ACEB0608B44532D014DCBCF1030F3AD0D6
:1001D00009DCBCF1000F2AD0BCF1010F1CD0BCF12E
:1001E000020F31D11DE0BCF1110F17D0BCF1120F7D
:1001F0002AD119E0B8F5881F19D006DCB8F5803F80
:1002000015D0B8F5801F1FD111E0B8F5001F0ED032
:10021000B8F5041F18D10AE0CB6815E0CB681B1DA8
:1002200012E0CB6808330FE0CB680C330CE08B682E
:100230002BB1012B4FF0080303D0456104E00423E8
:1002400002E0056100E00023FF2A01D8064601E034
:1002500000F104064FEA840501D9A5F12005D6F87E
:10026000008007FA05FC28EA0C0803FA05F548EABD
:100270000508C6F800804D68ED0062D5374DAE69BF
:1002800046F00106AE61AD6924F0030605F00105F4
:100290000095334D06EB050CDCF80850A607360F29
:1002A00007FA06F825EA0805DFF8B880404503D1CB
:1002B0004FF0000817E044E0DFF8AC80404502D181
:1002C0004FF001080FE0DFF8A480404502D14FF065
:1002D000020808E0DFF89880404502D14FF003089B
:1002E00001E04FF0040808FA06F848EA0508CCF8DF
:1002F00008804D68D9F80060ED034D4601D51643DE
:1003000000E096432E604D68DAF80060AD03554674
:1003100001D5164300E096432E604D68DBF800607F
:10032000ED025D4601D5164300E096432E604D6810
:10033000DEF80060AD02754601D5164300E0964335
:100340002E60641C0D682A46E5407FF431AFBDE89D
:10035000F88F00000004014000001110001002405E
:100360000000014000080140000C01400010014065
:10037000001401400AB1016170470904FBE7000065
:100380000148806870470000100000200248816822
:10039000027811448160704710000020074810B5B2
:1003A000016841F010010160032000F067F80020AF
:1003B00000F006F800F024F8002010BD00200240F4
:1003C00070B50D4D04464FF47A712878B1FBF0F00A
:1003D0000A490968B1FBF0F000F0A1FD48B9102C02
:1003E00007D200222146501E00F028F800206C6041
:1003F00070BD012070BD0000100000201C00002016
:100400000C4808B5816941F001018161816901F001
:1004100001010091C16941F08051C161C06900F0E2
:10042000805000900448416821F0E06141F0007183
:10043000416008BD0010024000000140F0B40E4BC6
:100440001B680C46C3F30223C3F10705042D00D932
:100450000425191D072901D2002300E0DB1E012617
:1004600006FA05F1491E214099409E40761E16402D
:100470003143F0BC00F069BF0CED00E0064900F02C
:10048000070208684FF6FF03184040EA0220034ABB
:1004900010430860704700000CED00E00000FA0512
:1004A000014901200862704700000E4210B529A4DE
:1004B00001461DCC86B08DE81D002AA02A4C00689C
:1004C00004900020012923D002293AD010291DD1FF
:1004D00061682268D20119D5C1F38342C9031DF8AE
:1004E000020009D5616804AAC1F34041515C1F4A6A
:1004F000B2FBF1F1484301E01D49484361684902FC
:1005000004D440005FF00301B0FBF1F006B010BD71
:10051000226AC2F30121012903D1920701D5C80340
:10052000F4E7022905D1626A920702D549F64040F4
:10053000ECE70329EAD121688903E7D54FF224408B
:10054000E4E700F023F96168C1F38131491C4900F7
:10055000DAE7000002030405060708090A0B0C0D80
:100560000E0F1010010200000010024000127A006D
:1005700000093D002DE9F84305460078354CC007D9
:1005800054D0E0690026C00008D4E06940F08050F3
:10059000E061E069012600F0805000902E4801687B
:1005A000C90512D40168804641F480710160FFF7EB
:1005B000E7FE074605E000BFFFF7E2FEC01B642828
:1005C00023D8D8F80000C005F6D5206A10F4407092
:1005D00021D0A98801F4407181421CD0206A1F49B2
:1005E000012220F440700A6000220A602062C007E5
:1005F00011D0FFF7C5FE074641F2883808E000BF7A
:10060000FFF7BEFEC11B414502D90320BDE8F883B8
:10061000206A8007F4D5206A696820F44070084396
:1006200020621EB1E06920F08050E06128788007E8
:1006300005D56068A96820F44040084360602878C8
:10064000C00605D56068E96820F480000843606052
:100650000020DBE7001002400070004040044242EE
:100660002DE9F0470F46050061D0434E306800F099
:100670000700B84209D2306820F0070038433060E4
:10068000306800F00700B84251D128683B4C810720
:1006900012D5400703D5606840F4E06060602878B8
:1006A000000703D5606840F4605060606068A96826
:1006B00020F0F000084360602878C00728D0686800
:1006C000012810D02168022810D0890700292EDACD
:1006D000616821F0030101436160FFF751FE80462C
:1006E00041F288390DE021688903EFE78901EDE7E0
:1006F000FFF746FEA0EB0801494502D90320BDE8FB
:10070000F0876068696800F00C00B0EB810FEFD1F2
:10071000306800F00700B8420BD9306820F00700BD
:1007200038433060306800F00700B84201D0012043
:10073000E5E72878400705D56068E96820F4E060BF
:10074000084360602878000706D56068296920F4AE
:10075000605040EAC100606000F028F86168084A13
:10076000C1F30311515CC84006490860064800689F
:10077000FFF726FE0020C2E70020024000100240E2
:10078000A81400081C00002014000020044805499B
:1007900000684968044AC1F3C221515CC8407047EF
:1007A0001C00002000100240B814000812A185B0FF
:1007B0000FC98DE80F0014A0144A00680490516816
:1007C000134801F00C03042B10D0082B0ED1C1F3F9
:1007D0008343C9031DF803000AD5516804AAC1F375
:1007E0004041515C0A4A5043B0FBF1F005B07047FC
:1007F00008494843FAE70000020304050607080910
:100800000A0B0C0D0E0F1010010200000010024028
:1008100000127A0000093D002DE9F84F040070D065
:100820002078C04DC00749D06868C0F38100012816
:1008300007D06868C0F38100022809D16868C00346
:1008400006D52868800339D560680028E7D035E0F0
:100850006068B0F5803F0BD010B1B0F5A02F11D07B
:10086000286820F480302860286820F4802002E086
:10087000286840F480302860606890B1FFF780FD00
:1008800006460AE0286840F480202860F0E700BFB0
:10089000FFF776FD801B642873D828688003F7D59E
:1008A0000CE0FFF76DFD064605E000BFFFF768FDB1
:1008B000801B6428F0D828688003F7D420789A4EEB
:1008C00080074FF001094FF0000839D5686810F033
:1008D0000C0F07D06868C0F38100022809D168684E
:1008E000C00306D42868800714D52069012808D1E0
:1008F00010E02069B0B1C6F80090FFF741FD07464F
:1009000005E00AE1FFF73CFDC01B0228C4D82868B7
:100910008007F7D52868616920F0F80040EAC10037
:1009200028600DE0C6F80080FFF72AFD074604E0C6
:10093000FFF726FDC01B022823D828688007F7D4BC
:10094000207800072CD57948A169D9B1C0F800906A
:10095000FFF716FD074604E0FFF712FDC01B022853
:100960000FD8686A8007F7D571484FF4FA510068CC
:10097000B0FBF1F0009000BF0098411E0091FAD248
:100980000EE080E0C0F80080FFF7FAFC074604E0C4
:10099000FFF7F6FCC01B022875D8686A8007F7D4F9
:1009A0002078400760D5E8690027C00008D4E869CE
:1009B00040F08050E861E869012700F08050009025
:1009C0005C480168C90513D40168834641F480710D
:1009D0000160FFF7D5FC824606E000BFFFF7D0FCC0
:1009E000A0EB0A0064284ED8DBF80000C005F5D55E
:1009F000E06801280AD008B1052813D0286A20F041
:100A000001002862286A20F0040002E0286A40F011
:100A100001002862E06841F2883B98B1FFF7B0FC22
:100A200082460BE0286A40F004002862EEE700BF2F
:100A3000FFF7A6FCA0EB0A0159455AD8286A80079F
:100A4000F6D50CE0FFF79CFC824605E0FFF798FC2A
:100A5000A0EB0A0159454CD8286A8007F6D41FB18B
:100A6000E86920F08050E861E06988B36968C1F303
:100A70008101022944D00228C6F8608004D0FFF723
:100A80007FFC044638E034E0FFF77AFC074604E0D8
:100A9000FFF776FCC01B02282BD828688001F7D40A
:100AA000206AB0F5803F05D16868A16820F4003065
:100AB00008436860D4E908010843696821F47411A7
:100AC00008436860C6F86090FFF75AFC044606E0E9
:100AD00025E000BFFFF754FC001B022809D8286856
:100AE0008001F7D51BE000BFFFF74AFC001B02287E
:100AF00002D90320BDE8F88F28688001F4D40EE005
:100B00000128F7D06868226A00F48031914204D14C
:100B1000616A00F47010884201D00120EAE70020E9
:100B2000E8E7000000100240000042428004424218
:100B30001C00002000700040024850F8210080B2E4
:100B400070470000006C0040024800EB810091B249
:100B500001607047006C00402DE9F041040012D0A4
:100B6000207C012812D0012626740220607420689F
:100B7000016821F002010160204600F0EFFA002533
:100B80000427B8B904E00120BDE8F0810220FBE7AA
:100B900021686FF0020048602168000C086221683B
:100BA00048620848016821F400310160204600F0E5
:100BB000EFFA10B167742574E5E7667425740020B8
:100BC000E2E70000000401402DE9F04791460C46A1
:100BD0005FEA00084AD084B3D8F8000040684007B4
:100BE00044D4404600F0F6FA4FF461620546B0FB8B
:100BF000F2F1B0FBF2F302FB13503C23B0FBF3F035
:100C0000B5FBF2F6607002FB1650B0FBF3F203FB8B
:100C10001200A070182931D31820B1FBF0F7B1FBF6
:100C2000F0F200FB12102070404600F0CCFA411C9C
:100C300004D0A84202D9461B02E017E04FF0FF366D
:100C4000A7EB071000EB4000C0EB001005EBC01550
:100C50002946404600F00DFB40B9701C01D07119C7
:100C600000E03146404600F0F0FA10B10120BDE846
:100C7000F0873946404600F01AFA00E02170B9F1D9
:100C8000000F0BD0207800F007FA2070607800F099
:100C900003FA6070A07800F0FFF9A0700020E6E78A
:100CA00070B5040003D0607C002610B105E001207F
:100CB00070BD2674204600F043F802206074204680
:100CC00000F010F9042578BB204600F047FA58BB25
:100CD0002068416821F007014160A06820B11748F1
:100CE000016821F0010101601448001F0168A26839
:100CF00021F46071114301606068411C04D101203E
:100D0000FFF7D4FB80B1401E21688A6822F00F02F1
:100D100042EA10428A602168CA6860F30F02CA6022
:100D2000204600F035FA08B16574C0E7E67301208B
:100D30006073A0736074002070BD0000306C0040D0
:100D400008B50068084988420DD1FFF7A9FB07489C
:100D5000C16941F00061C161C069054900F00060EE
:100D600000900120086008BD0028004000100240EB
:100D70003C0442422DE9F0410D4604003BD0C5B38E
:100D8000207C01283AD04FF0010884F8108002201E
:100D90006074E87872B300F076F9E073687800F078
:100DA00072F96073A87800F06EF9A073C2B2617B2B
:100DB000E07B00F01FFA20732870204600F00AFA4A
:100DC0004FF46161B0FBF1F1002518292DD91822EB
:100DD000B1FBF2F1A1EB011101EB4101C1EB0111FA
:100DE00000EBC1163146204600F043FA0427C8B98B
:100DF0000BE000E004E00120BDE8F0810220FBE709
:100E0000E07368786073A878CFE7204600F0DBF9DC
:100E1000411C0AD0B04208D206490144204600F0E5
:100E200014FA10B167742574E5E784F8118025740D
:100E30000020E1E7805101002DE9F0410D4604005A
:100E400024D01DB3207C012823D04FF0010884F862
:100E50001080022060742878EAB100F014F94FF491
:100E6000616100FB01F6687800F00DF9C0EB00103D
:100E700006EB8006A87800F006F9351829462046CA
:100E800000F0F7F90026042710BB0FE00120BDE8B1
:100E9000F0810220FBE74FF4616148436978C1EBC0
:100EA000011100EB8100A9784518E7E72068416847
:100EB00021F005014160204600F085F9411C0AD06F
:100EC000A84208D206490144204600F0BEF910B1FC
:100ED00067742674DAE784F8118026740020D6E758
:100EE0008051010070B504000AD02068416821F0EB
:100EF00008014160FFF744FA05464FF47A7608E0AE
:100F0000012070BDFFF73CFA401BB04201D903201D
:100F100070BD206840680007F4D5002070BD10B592
:100F2000401EB0F1807F01D3012010BD4FF0E024BE
:100F300060610F21601700F008FA0020A06107200F
:100F40002061002010BDFEE72DE9F04385B00024AC
:100F500025480094019402940394816941F01001A2
:100F60008161816901F010010491816941F02001E2
:100F70008161816901F020010491816941F00401DE
:100F80008161816901F004010491816941F00801E6
:100F900081618069DFF8548000F00800049001222C
:100FA0001E214046FFF7E6F9DFF8449040F2FB17B8
:100FB000002239464846FFF7DDF91E2001250226AA
:100FC000CDE90005CDE9024669464046FFF7E2F863
:100FD00000970396CDE9015469464846FFF7DAF8D1
:100FE00005B0BDE8F0830000001002400008014099
:100FF000000C01407CB50020019000901E481D4966
:1010000001604FF0FF3141604FF480718160FFF764
:1010100047FE1A48016809B90121016001211648FB
:10102000FFF78AFD43F2F224A04222D020258DF85A
:10103000045015208DF8050040208DF8060001228F
:1010400001A90D48FFF7F8FE04208DF800000520E7
:101050008DF8010028208DF802008DF80350012240
:1010600069460548FFF786FE224601210248FFF740
:101070006BFD7CBD00280040200000203C04424263
:10108000FEE770477047010901EB810100F00F0096
:1010900000EB4100C0B27047002102E00A38C0B244
:1010A000491C0A28FAD2090740EA116070472DE965
:1010B000F04104460025C07B627BA37B42E0012A0D
:1010C00016D0032A14D0052A12D0072A10D0082AD5
:1010D0000ED00A2A0CD00C2A0AD0042A10D0062AD4
:1010E0000ED0092A0CD00B2A0AD0022A0DD028E0F3
:1010F0001F2B0CD30C2A05D101221346401C20E0E3
:101100001E2B04D30123521C1BE01C2B02D203F123
:10111000010316E011D183B29E0710D16426B3FB00
:10112000F6F706FB173636B94FF4C876B3FBF6F779
:1011300006FB17331BB91D2303E01D2B01D103222E
:1011400001236D1C8D42BAD3D1B2E0736173DAB260
:10115000A27300F04FF82073BDE8F08170B504462B
:10116000FFF70EF905464FF47A7606E0FFF708F927
:10117000401BB04201D9032070BD20684068800642
:10118000F4D52068416841F010014160002070BD35
:1011900070B504460068416821F010014160FFF716
:1011A000EFF805464FF47A7607E000BFFFF7E8F85E
:1011B000401BB04201D9032070BD20684068800602
:1011C000F4D5002070BD0168086A496A89B241EA15
:1011D00000407047006881698AB2C1698BB2816939
:1011E00089B28A4203D0C06961F31F40704743EA65
:1011F00002407047F0B56424C1EBC1030927A50084
:10120000072603EB01130329B3FBF7F100F5FA609E
:10121000114401440AD2401EB0FBF4F201EB9001EC
:10122000B0FBF5F0891A0844001D08E0B0FBF4F2A9
:1012300001EB9001B0FBF5F0891A0844801CB0FB6B
:10124000F6F106FB1100C0B2F0BD70B50D460646C2
:101250000024FFF783FF48B93168280C0862316821
:10126000A8B248623046FFF793FF00B10124204640
:1012700070BD70B50D4606460024FFF76FFF48B9F4
:101280003168280C88613168A8B2C8613046FFF720
:101290007FFF00B10124204670BD7047FFF776B88C
:1012A00030B593B028216846FEF743FF14210AA801
:1012B000FEF73FFF00240F940320009010944FF49A
:1012C0008030019001251020CDE904501194129432
:1012D00007946846FFF7A0FA0F20CDE90A040C94A2
:1012E0000D9400210AA80E94FFF7BAF94FF440704C
:1012F000CDE90F500FA8FFF73DF913B030BD000046
:101300000D48016841F00101016041680B4A11403C
:10131000416001680A4A11400160016821F480219E
:101320000160416821F4FE0141604FF41F018160BA
:101330000449C00308607047001002400000FFF835
:10134000FFFFF6FE08ED00E0FEE70907090E0028A2
:1013500004DB00F1E02080F80014704700F00F007B
:1013600000F1E02080F8141D704702E008C8121F49
:1013700008C1002AFAD170477047002001E001C17E
:10138000121F002AFBD17047FFF708F8FFF788FF0C
:10139000FFF7DAFDFFF72EFE00213448FFF7DCFBF4
:1013A000DFF8CCB0334D4FF00A0A002230492F4805
:1013B000FFF70AFC51469BF801209BF80000B2FBA6
:1013C000F1F3B2FBF1F90AFB1328B0FBFAF2B0FB20
:1013D000F1F60AFB12070024002202212846FEF73C
:1013E000C9FF0021304600F047F80520FEF7C0FE97
:1013F000012202212846FEF7BDFF002204212846D3
:10140000FEF7B8FF0121384600F036F80520FEF758
:10141000AFFE012204212846FEF7ACFF002208217E
:101420002846FEF7A7FF0021484600F025F80520D2
:10143000FEF79EFE012208212846FEF79BFF0022B0
:1014400010212846FEF796FF0021404600F014F8D0
:101450000520FEF78DFE012210212846FEF78AFFA7
:10146000641CE4B2192CB7D39FE7000020000020D1
:101470000000002000080140094B0022185C00F029
:101480000303194480084FF6FF73C9B203EAC00092
:10149000084404490860521C082AFBDB704700001E
:1014A000030000200C0C01400000000000000000C0
:1014B00001020304060708090000000001020304FA
:1014C000E014000800000020200000006A1300085B
:1014D0000015000820000020180400007A130008FE
:1014E000000000FC60DAF266B6BEE0FEF600000026
:1014F0000100000010000000000000000024F400C3
:04000005080000ED02
:00000001FF
