S0200000486F616E674E4C375F41737369676E6D656E7420325F76322E7372656375
S113A00008E8FF1FF9A60000CFA600005BA7000028
S113A010000000000000000000000000000000003C
S113A02000000000000000000000000067A700001E
S113A03000000000000000000DA800000FA80000B0
S113A040A5A70000ADA70000B5A70000BDA70000AC
S113A05005A8000005A8000005A8000005A8000048
S113A060C5A70000CDA70000D5A70000DDA700000C
S113A070E5A70000EDA70000F5A7000005A8000073
S113A08005A8000005A8000005A8000005A8000018
S113A09005A8000005A8000005A80000FDA7000011
S113A0A005A8000005A8000005A8000005A80000F8
S113A0B005A8000005A8000005A8000005A80000E8
S113A0C070B504000020334908700120324908703B
S113A0D08025AD053148016829430160D226760008
S113A0E02000C0B2704300F0B1FA2D4801680D435E
S113A0F005606420E4B2001B704300F0A7FA70BD51
S113A100F8B5254F3878012821D18024A4052348A7
S113A110016821430160D2256D001E4E30786843EA
S113A12000F094FA1E4801680C43046064203178FE
S113A130401A684300F08AFA3078642803D100207A
S113A1403070387025E03078401C307021E01448BD
S113A1508024A405016821430160D2256D000D4EC1
S113A1603078684300F072FA0C4801680C430460CC
S113A17064203178401A684300F068FA3078642823
S113A18004D1002030700120387002E03078401C87
S113A1903070F1BD06E0FF1F04E0FF1F08F10F401F
S10FA1A004F10F40010101010100000066
S113A400FFFFFFFFFFFFFFFFFFFFFFFFFEFFFFFF59
S113A41038B505000C00FFF773FE60490120604A5F
S113A4201268120B02400A700A78002A0CD15D4AA5
S113A4301378012B08D1002129702378002B00D038
S113A44008002070117007E00978012904D15549EA
S113A4500A78002A00D1087031BD70B505000C00DF
S113A4602878FFF72DFE504A01204D490B68DB0880
S113A470034013701378002B08D14C4B1E78012E27
S113A48004D14B4A107000221A700AE01278012A93
S113A49007D1464A1378002B03D110700022444B95
S113A4A01A70434A1378012B0DD12B78642B05D2F3
S113A4B02B7819332B700023137004E064232B7062
S113A4C0107002222270354A0968090B014011708C
S113A4D01178002908D133490B78012B04D10020CD
S113A4E028702070087007E01178012904D12D49E3
S113A4F00A78002A00D1087070BD70B505000C0000
S113A5002878FFF7DDFD284A012025490B68DB0880
S113A510034013701378002B08D1244B1E78012EAE
S113A52004D1234A107000221A700AE01278012A1A
S113A53007D11E4A1378002B03D1107000221C4B44
S113A5401A701B4A1378012B0CD12B78002B05D0E1
S113A5502B78193B2B700023137003E000232B701E
S113A560107020700D4A0968090B014011701178B0
S113A57000290AD10B490B78012B06D100200200D7
S113A5802A7002002270087007E01178012904D1B2
S113A59004490A78002A00D1087070BD03E0FF1F47
S113A5A090F00F4002E0FF1F01E0FF1F00E0FF1FDB
S113A5B005E0FF1F10B41E480168802212010A43FF
S113A5C002600168802252010A430260016880220D
S113A5D092010A4302608022520016480168114326
S113A5E00160154801681143016014490B681A435E
S113A5F00A60134A13688024A4051C431460114A9A
S113A60013680824A343136013680F4C1C401460A0
S113A61002220368134303600B681A430A60012291
S113A620036813430360086802430A6010BC704760
S113A6303880044074D004400CB0044030B004406E
S113A64014F10F4094F00F40FFEFFFFF00B500211D
S113A65001E000BF491C8142FBD300BD80B500204E
S113A6606946087069464870FFF7A4FF04E069462C
S113A67000A8401CFFF7CCFE684600780028F6D0FE
S113A680022806D0F8D2694600A8401CFFF7E5FE70
S113A690F2E7694600A8401CFFF72FFFECE730B44F
S113A6A001220EE00368C31844680830144202D043
S113A6B04D466D1E64191D6825601B1D241D091F50
S113A6C0F9D10168001D0029ECD130BC7047FEE7C8
S113A6D010B5074979441831064C7C44163404E01B
S113A6E0081D0A68891888470100A142F8D110BDE5
S113A6F02C0000003C00000072B6044804490160CC
S113A7000448804762B604480047000008ED00E0B2
S113A71000A0000099A700007DA7000083FFFFFFB1
S113A7200800000080FAFFFF00E0FF1F00000000A7
S113A73000F00DF8002801D0FFF7CAFF00BF00BFEA
S113A740002000BF00BFFFF789FF00F002F80120DE
S113A750704780B500F002F801BDFEE707463846B1
S113A76000F002F8FBE7FEE780B500BF00BF024A35
S113A77011001820ABBEFBE7260002000548014685
S113A78003B4684680F3098800BF00BF00BF00BF60
S113A790FFF7CEFFA5EDF5FE0020014908607047E4
S113A7A0008104400048004705A800000048004715
S113A7B005A800000048004705A80000004800471D
S113A7C005A800000048004705A80000004800470D
S113A7D005A800000048004705A8000000480047FD
S113A7E005A800000048004705A8000000480047ED
S113A7F005A800000048004705A8000000480047DD
S113A80005A800000048004705A80000FEE7FEE791
S903A77DD8
