S01800006672656572746F735F70726F6A6563742E737265634C
S113000000600020F11B0000A9010000AB0100000A
S113001000000000000000000000000000000000DC
S11300200000000000000000000000004513000074
S1130030000000000000000007130000D70E0000BD
S1130040DD1C0000E51C0000ED1C0000F51C000098
S11300503D1D00003D1D00003D1D00003D1D000034
S1130060FD1C0000051D00000D1D0000151D0000F5
S11300701D1D0000251D00002D1D00003D1D00005C
S11300803D1D00003D1D00003D1D00003D1D000004
S11300903D1D00003D1D00003D1D0000351D0000FC
S11300A03D1D00003D1D00003D1D00003D1D0000E4
S11300B03D1D00003D1D00003D1D00003D1D0000D4
S11300C01206130A1A43130C1A4300BF094205D03F
S11300D0830705D00270401C491EF9D17047000007
S11300E01300103906D330B41400150010393CC085
S11300F0FCD230BC490700D30CC000D504C0890031
S113010002D30280801C002900D5027070470100D0
S1130110083141600021C943816001000831C16098
S11301200100083101610021016070470021016173
S1130130704742684A6093688B6093685960916025
S113014008610168491C0160704710B50B68002202
S1130150D243934201D1026907E00200083200E071
S1130160526854682468A342FAD253684B604B68BF
S113017099608A60516008610168491C016010BD82
S113018000B50169826843689A60426883685A606E
S11301904A68824201D182684A600022026108688A
S11101A0401E0860086800BDFEE7FEE77047D9
S1130400FFFFFFFFFFFFFFFFFFFFFFFFFEFFFFFFF9
S1130410F7B584B007001D006846018B04204843EB
S113042000F0EAFB0600002E0BD0582000F0E4FB9D
S11304300400002C01D0266304E0300000F05AFCD4
S113044000E00024002C12D02B0005993800002273
S1130450039202940D9A01920C9A00926A46128BAE
S113046000F00AF8200000F066F8012001E0002006
S1130470C04307B0F0BD0000F1B582B00E00170014
S11304801D000A9C04217943A522206B009000984A
S1130490FFF716FE0098206B04214F43C019001F7C
S11304A00721884300900098400701D072B6FEE708
S11304B0002E0FD00020010000E0491C0A2906D2BA
S11304C0725C63183427DA55725C002AF5D13D2139
S11304D0605402E0002034216054089E052E00D3AD
S11304E00426099F0195E662A6640025E564201DA3
S11304F0FFF71CFE20001830FFF718FE24610520CA
S1130500801BA061646204212A002600503630005A
S1130510FFF7D6FD01212A00250054352800FFF7F6
S1130520CFFD019A0299009800F084FC2060002F0E
S113053000D03C60F7BD38B5040000F0B3FC2A4895
S11305400168491C0160294D2968002906D12C60E5
S1130550006801280CD100F04DFA09E02448006835
S1130560002805D1E06A2968C96A884200D32C6052
S113057020480168491C0160006820641E48016825
S1130580E26A914201D2E16A0160211D1B48E26ADC
S113059014235A438018FFF7CCFD00F08DFC144857
S11305A00068002806D02868C06AE16A884201D23F
S11305B000F06EFC31BD000010B504000020002CDA
S11305C00DD00F480068002801D072B6FEE700F095
S11305D041F80021200000F0D5FA00F043F800288B
S11305E001D100F055FC10BD44F5FF1F6CF4FF1F52
S11305F050F5FF1F60F5FF1F4CF5FF1F70F4FF1F40
S11306006CF5FF1FE0B54B480190002000900023DB
S1130610822249494948FFF7FBFE012801D100F035
S11306208DFC01280FD172B60020C04344490860F4
S113063001200B49086000204249086000F013FCC7
S11306407648006807BD0021C9438842F8D172B6D4
S1130650FEE7000032480168491C01607047000051
S113066050F5FF1FF8B50024250027002C4E3068F4
S1130670002801D172B6FEE700F014FC3068401E79
S113068030603068002843D126480068002821D112
S11306903EE0C068C56828001830FFF771FD281DCA
S11306A0FFF76EFD20480168EA6A914201D2E96AC7
S11306B00160291D7948EA6A14235A438018FFF718
S11306C038FDE86A76490968C96A884202D301207C
S11306D017490860154801680029DAD1002D01D0B6
S11306E000F0D7F96F4D2E68002E0AD000F02CF8D8
S11306F0002802D001200E490860761E002EF5D194
S11307002C600B480068002802D0012700F0C0FBD1
S113071000F0D2FB3800F2BD0A48006870470000C0
S11307206CF5FF1F44F5FF1F4CF5FF1F04F5FF1F79
S113073058F5FF1F68F5FF1FC41C0000E109000005
S113074064F5FF1F48F5FF1FF8B500247D480068D5
S113075000285CD17C4807687F1C0760002F11D1FA
S11307605C4908680068002801D072B6FEE7086892
S1130770594A13680B60106074480168491C016091
S113078000F087F9724E306887422CD31FE0281D91
S1130790FFF7F6FCA86A002803D028001830FFF7FA
S11307A0EFFC6C480168EA6A914201D2E96A01608F
S11307B0291D3A48EA6A14235A438018FFF7B9FC02
S11307C0E86A37490968C96A884200D30124414864
S11307D001680968002916D00068C068C56868689F
S11307E08742D4D230602E4800682C49C06A142253
S11307F050430858022800D301245B4800680028AD
S113080009D0012407E00020C0433060EBE725480D
S11308100168491C01602000F2BD000008E0FF1FD0
S113082010B548480068002803D001204E490860EC
S113083023E000204C4908604649086800E0401E57
S1130840164A14234343D358002B03D10028F6D16E
S113085072B6FEE714234343D21853685B685360AF
S1130860536814000834A34202D153685B68536090
S11308705268D2680A4B1A60086010BD10B50C00AB
S1130880002801D172B6FEE7054909681831FFF75F
S11308905CFC0121200000F075F910BD70F4FF1F0D
S11308A06CF4FF1F54F5FF1F38B50C00002801D16C
S11308B072B6FEE71500704909681831FFF739FC74
S11308C02000002D01D00020C043290000F05AF977
S11308D031BD0000FCF4FF1F00F5FF1F10B5C06818
S11308E0C468002C01D172B6FEE720001830FFF76F
S11308F047FC14480068002812D1201DFFF740FC73
S113090014480168E26A914201D2E16A0160211D42
S11309105848E26A14235A438018FFF70AFC04E09B
S1130920210018315548FFF704FC51480068C06A9B
S1130930E16A884204D2012108000B4A116000E0F8
S1130940002010BD6CF5FF1F48F5FF1F5CF5FF1F6D
S113095064F5FF1F4CF5FF1F5649096801605E49A5
S1130960096841607047000058F5FF1F38B504005E
S1130970002C01D172B6FEE70D00002D01D172B634
S1130980FEE700F08FFA544800686168411A2A684B
S11309900023DB439A4201D1002419E0454A12683E
S11309A023689A4206D06268904203D3012400204F
S11309B028600DE02868814207D22868401A286020
S11309C02000FFF7C9FF002402E000202860012472
S11309D000F072FA200032BD0120404908607047DF
S11309E080B500F029F8234800680228F9D300F004
S11309F04FFAF6E738B5002406E01E481421614397
S1130A004018FFF784FB641C052CF6D3344D2800F2
S1130A10FFF77DFB4E4C2000FFF779FB1748FFF7EB
S1130A2076FB4C48FFF773FB4B48FFF770FB4B48D2
S1130A3005604B48046031BD38B513E000F032FA6C
S1130A404448C068C568281DFFF79AFB45480168FB
S1130A50491E01602068401E206000F02DFA280025
S1130A6000F00EF8404C20680028E7D131BD0000AA
S1130A706CF4FF1F70F4FF1F6CF4FF1F04F5FF1FDD
S1130A8010B50400206B00F035F9200000F032F9B5
S1130A9010BD00B5314801680968002904D100205F
S1130AA0C0433249086004E00068C06800682F4908
S1130AB0086000BD5CF5FF1F00B52E4800680028E3
S1130AC001D1012006E02C480068002801D1022051
S1130AD000E0002000BD000048F5FF1F58F5FF1F8F
S1130AE0D4F4FF1F10B501000C00002000292DD004
S1130AF01F4909688C4201D072B6FEE7E16C0029F7
S1130B0001D172B6FEE7E16C491EE164E16AA26CB0
S1130B1091421BD0E16C002918D1201DFFF730FB56
S1130B20A06CE0620520E16A401AA06114480168E3
S1130B30E26A914201D2E16A0160211D0F48E26A32
S1130B4014235A438018FFF7F4FA012010BD000063
S1130B50E8F4FF1F18F5FF1F30F5FF1FFCF4FF1F1B
S1130B6000F5FF1F44F5FF1F2CF5FF1F64F5FF1F61
S1130B706CF4FF1F50F5FF1F6CF5FF1F70F4FF1F8F
S1130B804CF5FF1FF8B507000C0016480568144E15
S1130B903068001DFFF7F4FA0020C043874207D1F4
S1130BA0002C05D03068011D0F48FFF7C2FA16E08B
S1130BB0EC1930684460AC4206D23068011D0B4821
S1130BC00068FFF7C2FA0AE03068011D08480068AF
S1130BD0FFF7BBFA074801688C4200D20460F1BDFC
S1130BE06CF4FF1F48F5FF1F30F5FF1F00F5FF1FD2
S1130BF0FCF4FF1F64F5FF1FFEB5050000240094FC
S1130C00FFF728FD82480068002801D100F0A4F80D
S1130C10804F38682840002863D1002D1BD07E48BF
S1130C20016869188D4216D200682918072001420C
S1130C3012D00A00083203000B40D21A914208D2A3
S1130C400A0008320140511A0840002804D072B644
S1130C50FEE7210000E02100002942D06F4D286802
S1130C6088423ED36E480190066801E001963668DA
S1130C707068884202D230680028F7D1644800685E
S1130C8086422ED06448019A12680368D2180092F2
S1130C903268019B1A60006840007268521A9042E0
S1130CA00BD270180200520701D072B6FEE77268C8
S1130CB0521A4260716000F07CF828687168401A2A
S1130CC02860584829680268914201D22968016065
S1130CD07068396801437160346053480168491C85
S1130CE00160FFF7BFFC0098400701D072B6FEE731
S1130CF00098FEBD10B5010000282CD046480068BD
S1130D0042428C184348616802680A40002A01D1B3
S1130D1072B6FEE72168002901D072B6FEE7616869
S1130D2002680A40002A16D02168002913D161689C
S1130D30006881436160FFF78DFC38480168626890
S1130D4089180160200000F034F838480168491C13
S1130D500160FFF787FC10BD10B5A0225201344991
S1130D60080043075B0F002B04D0C01D07239843E2
S1130D70121A52182A4B1860002159608218264B07
S1130D801B68D21A07239A43214B1A601C686160BE
S1130D901C682160111A4160196801604168214A88
S1130DA0116040681D4908608020000619490860E8
S1130DB010BD10B51A4900E009680A688242FBD3E5
S1130DC00A004B68D218824204D14A68406810185D
S1130DD04860080002004368D2180B689A4210D198
S1130DE00B4A0B681468A34208D042680B685B681E
S1130DF0D21842600A681268026004E01268026055
S1130E0001E00A680260814200D0086010BD000061
S1130E1014F4FF1F28F4FF1F441D000018F4FF1FE3
S1130E200CF4FF1F1CF4FF1F20F4FF1F24F4FF1F0A
S1130E300CE0FF1F001F80235B040360001F0160A0
S1130E40001F2D49016014380260203870470000EB
S1130E5000B52A4800680021C943884201D072B60F
S1130E60FEE772B6FEE780B525480168FF2212044A
S1130E700A4302600168FF2212060A43026000F07E
S1130E8043F800201D49086000F05DFA002002BD0F
S1130E90802040051B490860BFF34F8FBFF36F8F5D
S1130EA07047000072B615480168491C0160BFF321
S1130EB04F8FBFF36F8F704700B51048016800294A
S1130EC001D172B6FEE70168491E0160006800287E
S1130ED000D162B600BD10B500F046FA0400FFF779
S1130EE033FC002803D08020400506490860200018
S1130EF000F03EFA10BD0000510E000000E0FF1F9C
S1130F0020ED00E004ED00E010B5084C0020206066
S1130F100749086007480068FA21890000F02EFAA2
S1130F20401E054908600720206010BD10E000E065
S1130F3018E000E004E0FF1F14E000E01CB500240A
S1130F4000F0ACF96848006800280BD067480190AD
S1130F500220009000238222520065496548FFF771
S1130F6057FA0400002C01D172B6FEE7200016BD2A
S1130F707FB505001E000020002D01D172B6FEE7EA
S1130F80594C2368002B1CD000910192029506292C
S1130F9011DAFFF791FD022806D1089A0023694669
S1130FA0206800F0C1FA0CE00023002269462068A2
S1130FB000F0BAFA05E0002332006946206800F028
S1130FC055FB04B070BD00007CB505000E00B248AE
S1130FD00068C068C468201DFFF7D2F82820205C90
S1130FE0400715D532002B00A0692918200000F015
S1130FF083F8002812D00020009000232A0000214A
S11310002000FFF7B5FF002801D172B6FEE705E026
S11310102820205CFE210140282021542000216A40
S1131020884773BD80B5684600F037F8009900F032
S113103003F800F081F8F6E77CB504000E00FFF732
S113104009FB684600F03CF805000098002821D10F
S11310503200002A08D1A54206D3FFF703FB29007A
S11310602000FFF7B1FF17E0002A07D09D48006871
S11310700068002801D1012200E00022611B1A4807
S1131080006800F0A3FCFFF7EDFA002804D1FFF795
S1131090FFFE01E0FFF7E6FA73BD00B57E490A687A
S11310A01268002A01D1012200E0002202600068D7
S11310B0002803D10868C068006800E0002000BD73
S11310C070B50400FFF728FB0500874E30688542A1
S11310D004D200F0ADF80120206001E0002020607F
S11310E03560280070BD0000A0F5FF1FA4F5FF1FA8
S11310F0CC1C00002510000010B5002441600061E4
S11311008A420BD3D11A8269914201D3012410E09F
S1131110011D74480068FFF718F80AE09A4203D2E8
S1131120994201D3012404E0011D5B480068FFF7E4
S11311300CF8200010BD000018B585B0FFE70022B0
S113114001A96A48006800F0EDFA00286ED0019801
S11311500028F4D4039C6069002802D0201DFFF706
S11311600FF804A8FFF7ACFF0200019800280ED086
S113117002280CD00BD3042834D02CD3062806D054
S113118044D3082827D002D309282BD04DE02820A7
S1131190205C0121014328202154029B0298A1696B
S11311A041182000FFF7A8FF0028C8D02000216ABA
S11311B088472820205C4007C1D5002000900023E8
S11311C00298A169421800212000FFF7D1FE0028EF
S11311D0B5D172B6FEE72820205CFE21014028200C
S11311E02154ACE72820205C01210143282021540C
S11311F00298A061A069002806D01300A069111804
S11312002000FFF779FF9AE772B6FEE72820205CFA
S1131210800703D42000FFF76DFD05E02820205C43
S1131220FE2101402820215489E788E706B010BD3B
S11312307CB505E060602461211D2868FEF785FF08
S1131240154D28680068002820D02868C068066802
S11312502868C068C468201DFEF792FF2000216A38
S113126088472820205C4007EAD5A06930188642C8
S1131270E0D3002000900023320000212000FFF77B
S113128077FE002800D0DBE772B6FEE72868154930
S11312900A682A60086073BD98F5FF1F70B5FFF7F0
S11312A001FE124C2068002818D1114E3000FEF7C0
S11312B02EFF104D2800FEF72AFF0F48066009484C
S11312C0056000220C210A2000F0EAF82060206862
S11312D0002803D00949206800F061FBFFF7ECFD0A
S11312E070BD00009CF5FF1FA8F5FF1FA0F5FF1FB0
S11312F070F5FF1F84F5FF1F98F5FF1FD41C000035
S113130080F308887047EFF309801B4B1A68203874
S11313101060F0C044464D4656465F46F0C008B5DE
S113132072B6FFF77DFA62B60CBC1168086810301B
S1131330F0C8A046A946B246BB4680F309882038C7
S1131340F0C8184770470C4B19680868203080F3C0
S11313500988022080F31488BFF36F8F3FBCAE4628
S113136008BC04BC62B61847EFF3108072B670472D
S113137080F31088704700006CF4FF1F0022030AFA
S11313808B420BD203098B4219D243088B422ED2D3
S1131390411A00D20146524110467047FF22090209
S11313A03FD012068B4205D3121209028B4201D39D
S11313B01212090203098B4219D300E0090AC30976
S11313C08B4201D3CB01C01A524183098B4201D312
S11313D08B01C01A524143098B4201D34B01C01AFD
S11313E0524103098B4201D30B01C01A5241C30875
S11313F08B4201D3CB00C01A524183088B4201D3E4
S11314008B00C01A524143088B4201D34B00C01ACF
S11314105241884200D3401A5241CFD2014610466D
S1131420704708B5FEF7C2FE08BD000038B50500D8
S11314300C00002D01D172B6FEE7FFF733FD2868DA
S1131440E96B2A6C51434018A8600020A8632868FF
S113145068602868E96B491E2A6C51434018E860AB
S11314600020C0434421685445216854002C0BD10A
S11314702869002810D028001030FFF72FFA002820
S11314800AD0FFF705FD07E028001030FEF73FFE05
S113149028002430FEF73BFEFFF70EFD012032BD8D
S11314A0F8B504001500002C01D172B6FEE70F0058
S11314B026007E43002F05D030003900FFF75EFF81
S11314C0844201D1012000E00020C0B2002801D1F3
S11314D072B6FEE730005030864201D372B6FEE7A2
S11314E050363000FFF788FB0600002E09D02B0091
S11314F03000020050320096DBB23900200000F0C8
S113150002F83000F2BD38B5049C002901D12460F2
S113151000E022601D00E063216401212000FFF748
S113152085FF4C20255431BDF6B583B00026350027
S11315300400002C01D172B6FEE700910098002847
S113154002D1206C002801D1012000E03000C0B29B
S1131550002801D172B6FEE71F00022F02D1E06B12
S1131560012801D1012000E03000C0B2002801D1DF
S113157072B6FEE7FFF7A0FA002802D1049800280B
S113158001D1012000E03000C0B2002832D172B68F
S1131590FEE7049800284ED0002D03D101A8FFF7E0
S11315A0DBF90125FFF788FCFFF754F8FFF77AFC15
S11315B00020C04344216156814202D131004422BB
S11315C0A15445216156814202D130004521605425
S11315D0FFF772FC04A901A8FFF7C8F900283DD160
S11315E0200000F0CCF9002829D1200000F081F976
S11315F0FFF738F8FFF756FCA06BE16B884201D384
S1131600022FC6D13A000099200000F01DF9616A4A
S1131610002908D020002430FFF760F9002806D004
S1131620FFF736FC03E0002801D0FFF731FCFFF799
S113163043FC012018E0FFF73FFC002014E004996C
S113164020001030FFF71AF9200000F052F9FFF7DC
S113165009F80028CED1FFF71BFCCBE7200000F0EF
S113166048F9FEF7FFFF002005B0F0BDFEB51600F7
S11316700400002C01D172B6FEE701910198002804
S113168002D1206C002801D1012000E00020C0B26A
S1131690002801D172B6FEE700930098022802D117
S11316A0E06B012801D1012000E00020C0B2002835
S11316B001D172B6FEE7FFF757FE0700A06BE16B9E
S11316C0884202D30098022826D145202556A06BD3
S11316D0009A0199200000F0B7F828000021C943BE
S11316E040B288420DD1606A002809D0200024301D
S11316F0FFF7F4F8002803D0002E01D00120306059
S113170008E0280040B27F2801D172B6FEE76D1CC4
S113171045202554012400E000243800FFF728FE6A
S11317202000FEBDF6B583B000273E000400002C67
S113173001D172B6FEE700910098002802D1206C16
S1131740002801D1012000E03800C0B2002801D1F6
S113175072B6FEE7FFF7B0F9002802D1049800281A
S113176001D1012000E03800C0B2002806D172B6D1
S1131770FEE7200000F0BDF8FEF774FFFFF792FBD0
S1131780A56B002D06D10498002818D1FFF794FB0F
S1131790002057E00099200000F096F86D1EA56324
S11317A02069002807D020001030FFF797F80028A0
S11317B001D0FFF76DFBFFF77FFB012042E0002E15
S11317C003D101A8FFF7C8F80126FFF775FBFEF760
S11317D041FFFFF767FB0020C0434421615681426B
S11317E002D139004422A15445216156814202D1DB
S11317F0380045216054FFF75FFB04A901A8FFF7F7
S1131800B5F8002813D1200000F0AAF80028B0D0C1
S1131810049920002430FFF731F8200000F069F823
S1131820FEF720FF0028A9D1FFF732FBA6E720002E
S113183000F05FF8FEF716FF200000F091F8002892
S11318409CD0002005B0F0BDF8B504000026009639
S1131850A56B206C002808D12068002830D1A0682E
S1131860FFF740F90090A6602AE01600002E0FD181
S1131870226C6668300000F0E9F86068216C40185A
S113188060606068A16888421AD32068606017E0CD
S1131890226CE768380000F0D9F8E068216C4A420D
S11318A08018E060E0682168884204D2A068216C56
S11318B04A428018E060022E02D1002D00D06D1E35
S11318C06D1CA5630098F2BD10B50C00016C0029D5
S11318D00ED0C168026C8918C160C16882689142E7
S11318E001D30168C160026CC168200000F0AEF849
S11318F010BD70B50400FFF7D5FA4520255608E061
S113190020002430FEF7EAFF002801D0FFF764F836
S11319106D1E280040B2012802DB606A0028EFD166
S11319200025ED4345202554FFF7C6FAFFF7BAFA20
S11319304420265608E020001030FEF7CFFF002890
S113194001D0FFF749F8761E300040B2012802DBCF
S113195020690028EFD144202554FFF7ADFA70BD6B
S113196010B50400FFF79EFAA06B002801D10124F2
S113197000E00024FFF7A0FA200010BD000010B51D
S11319800400FFF78FFAA06BE16B884201D10124B8
S113199000E00024FFF790FA200010BD000010B50D
S11319A0002200E0521C082A0CD2074B082454439E
S11319B01C59002CF6D108245443195108214A43D8
S11319C09918486010BD00002CF4FF1F70B50D007D
S11319D016000400FFF766FA0020C0434421615654
S11319E0814202D100214422A15445216156814201
S11319F002D1002045216054FFF75EFAA06B002855
S1131A0005D13200290020002430FEF74DFF2000CC
S1131A10FFF76FFF70BD000070B4103A03D378C9AC
S1131A20103A78C0FBD2530701D318C918C001D5A6
S1131A3008C908C0D20704D30B880380891C801C02
S1131A40002A01D50B78037070BC70478B0701D155
S1131A508307E1D0124205D00B78491C0370401C67
S1131A60521EF9D17047000010B520241D480168AA
S1131A70214301601420FEF79FFD1B4801680C43BD
S1131A8004605020FEF798FDEFE710B58024A4050C
S1131A901648016821430160FA20FEF78DFD1448C1
S1131AA001680C4304601348FEF786FDEEE71FB59A
S1131AB000F028F8104C02A80190012000900023A7
S1131AC0822221000D48FEF7A3FC02A80190012008
S1131AD000900023822221000948FEF799FCFEF7BA
S1131AE091FDFEE7C8F00F40C4F00F4008F10F402D
S1131AF004F10F408A020000A01C0000691A0000D3
S1131B008B1A000010480168802252010A430260C7
S1131B100168802292010A430260802040000B4940
S1131B200A6802430A600A490A68104308600948BF
S1131B30016820220A430260074801688022920556
S1131B400A430260704700003880044014C0044017
S1131B5074D00440D4F00F4014F10F4070B401234A
S1131B60002413E00168001D194202D04D466D1E89
S1131B7049190C60091D121F042AFAD20D00960798
S1131B8001D50C80AD1C1A4000D02C700268001DD9
S1131B90002AE7D170BC704730B401220EE003681C
S1131BA0C31844680830144202D04D466D1E6419AF
S1131BB01D6825601B1D241D091FF9D10168001D26
S1131BC00029ECD130BC704710B50749794418316D
S1131BD0064C7C44163404E0081D0A6889188847BA
S1131BE00100A142F8D110BD2C0000004C000000FF
S1131BF072B60448044901600448804762B6044848
S1131C000047000008ED00E000000000AD1C0000EB
S1131C10851C000049FFFFFFA01500000CE0FF1F1A
S1131C200000000075FFFFFF0C0000008C000000A6
S1131C3000E0FF1F0000000000F00DF8002801D0B4
S1131C40FFF7C2FF00BF00BF002000BF00BFFFF7C7
S1131C502EFF00F002F80120704780B500F002F872
S1131C6001BD00000746384600F002F8FBE700001B
S1131C7080B500BF00BF024A11001820ABBEFBE7CD
S1131C80260002000548014603B4684680F309882B
S1131C9000BF00BF00BF00BFFFF7CEFFA5EDF5FEFC
S1131CA0426C696E6B204C656400000000200149A1
S1131CB00860704700810440AAAAAAAA0000400153
S1131CC00400000049444C4500000000546D72209B
S1131CD053766300546D72510000000000480047C1
S1131CE03D1D0000004800473D1D0000004800471E
S1131CF03D1D0000004800473D1D0000004800470E
S1131D003D1D0000004800473D1D000000480047FD
S1131D103D1D0000004800473D1D000000480047ED
S1131D203D1D0000004800473D1D000000480047DD
S1131D303D1D0000004800473D1D000000480047CD
S10B1D403D1D00000800000035
S9031C855B
