:10000000FE2F00308A000408840A8207003450342E
:1000100072346F346A346534633474342034493450
:10002000493449340034313432343334343435349F
:0C0030003634373438343934303400347E
:100DA6000030D8260130D8260800F300831203133A
:100DB6008611730804278312031306160B30F200FC
:100DC6006230F100F10BE52EF20BE52E00008312E6
:100DD600031306120800F700F501F60175087707F8
:100DE60084000120003A031908007508770784007B
:100DF60001204F270130F5070318F60A0030F607E1
:100E0600F12EF000701C0B2F8312031385150E2F85
:100E1600831203138511F01C122F0515132F0511CC
:100E2600701D172F8514182F8510F01D1C2F051403
:100E3600080005100800003004273430F500F130B2
:100E4600F400F40B242FF50B242F292F0330D8267A
:100E56000D30F500FB30F400F40B2F2FF50B2F2F80
:100E6600342F0330D8261D30F5009130F400F40BF2
:100E76003A2FF50B3A2F0330D8260230D826023007
:100E8600D8260830D8260030D8260C30D826003090
:100E9600D8260630D8260800F40074080F39F10069
:100EA6007108F2007408F039F1007108F30083123A
:100EB600031386157308F10004300310F10CFF3E8E
:100EC600031D602F710804278312031306161A30B8
:100ED600F100F10B6C2F0000831203130612720847
:100EE60004278312031306161A30F100F10B792F2B
:100EF60000008312031306120800F7007703031D90
:100F06009F2F74087F3EF5007508FA007A08F500F1
:100F160004300310F50CFF3E031D8C2F7508F600F8
:100F26007608F8007A080F39F5007508F900780890
:100F3600D8267908D826080002307706031D08004F
:100F46007408BF3EF5007508FA007A08F50004300B
:100F56000310F50CFF3E031DAB2F7508F60076084F
:100F6600F8007A080F39F5007508F9007808D826D0
:100F76007908D826080083160313851183120313F4
:100F860085118316031305118312031305118316A6
:100F9600031385108312031385108316031305109C
:100FA600831203130510831603138611831203138A
:100FB60086118316031306128312031306121E27C5
:100FC600D326F401F40A013080270D30EE26F40111
:100FD600F40A023080270130EE260B30FD00263061
:100FE600FC005D30FB00FB0BF62FFC0BF62FFD0B18
:0A0FF600F62FFD2FE32F8301BE2F1D
:02400E002AFF87
:00000001FF
