S00C0000617373322E737265639F
S113A00000E8FF1FA9A10000F7A1000003A20000BF
S113A010000000000000000000000000000000003C
S113A020000000000000000000000000A9A20000E1
S113A0300000000000000000ABA20000ADA2000080
S113A04041A2000049A2000051A2000059A2000050
S113A050A1A20000A1A20000A1A20000A1A20000F0
S113A06061A2000069A2000071A2000079A20000B0
S113A07081A2000089A2000091A20000A1A2000018
S113A080A1A20000A1A20000A1A20000A1A20000C0
S113A090A1A20000A1A20000A1A2000099A20000B8
S113A0A0A1A20000A1A20000A1A20000A1A20000A0
S113A0B0A1A20000A1A20000A1A20000A1A2000090
S113A0C00168491C01600168491E0160006870470D
S113A0D001B50098401C00906846FFF7F1FF009816
S113A0E002BDE0B57D200190002108000800012098
S113A0F002900220009000F01FF80D4801688022B1
S113A10092050A4302600B48016820220A43026058
S113A11002980099484300980100491C0091019855
S113A120401C0198FFF7D4FFFFF7D2FFF0E70000CF
S113A13004F10F40C4F00F4014480168802252011A
S113A1400A4302600168802292010A43026080206F
S113A15040000F490A6802430A600E490A68104326
S113A160086020200C490A6802430A60802189059E
S113A1700A4A13680B431360094A136819431160B0
S113A18008490A681043086070470000388004409A
S113A19014C0044074D00440D4F00F4014F10F40B4
S113A1A008F10F40C8F00F4072B60448044901603A
S113A1B00448804762B604480047000008ED00E008
S113A1C000A0000035A2000019A2000000F00DF864
S113A1D0002801D000BF00BF00BF00BF002000BFA7
S113A1E000BFFFF77EFF00F002F80120704780B542
S113A1F000F002F801BDFEE70746384600F002F819
S113A200FBE7FEE780B500BF00BF024A110018203B
S113A210ABBEFBE7260002000548014603B46846CE
S113A22080F3098800BF00BF00BF00BFFFF7CEFF67
S113A230A5EDF5FE00200149086070470081044047
S113A24000480047A1A2000000480047A1A2000066
S113A25000480047A1A2000000480047A1A2000056
S113A26000480047A1A2000000480047A1A2000046
S113A27000480047A1A2000000480047A1A2000036
S113A28000480047A1A2000000480047A1A2000026
S113A29000480047A1A2000000480047A1A2000016
S111A2A000480047A1A20000FEE7FEE7FEE72B
S113A400FFFFFFFFFFFFFFFFFFFFFFFFFEFFFFFF59
S903A21941
