S01300004C6564426C696E6B696E672E73726563CE
S113A0000060002011A4000063A100006FA4000000
S113A010000000000000000000000000000000003C
S113A0200000000000000000000000007BA400000D
S113A030000000000000000021A5000023A500008E
S113A040B9A40000C1A40000C9A40000D1A4000068
S113A05019A5000019A5000019A5000019A5000004
S113A060D9A40000E1A40000E9A40000F1A40000C8
S113A070F9A4000001A5000009A5000019A500002D
S113A08019A5000019A5000019A5000019A50000D4
S113A09019A5000019A5000019A5000011A50000CC
S113A0A019A5000019A5000019A5000019A50000B4
S113A0B019A5000019A5000019A5000019A50000A4
S113A0C00020401C401C0A20014908607047000021
S113A0D000E0FF1F40187047006809684018704787
S113A0E0E0B5002108000A20019001980A30009090
S113A0F000980A300A300A300A300A300A300A302E
S113A1000A300A300A300A300A300A300A30FFF7BF
S113A110D7FF00990198FFF7DDFF694601A8FFF713
S113A120DBFF00200EBD70B40123002413E001689E
S113A130001D194202D04D466D1E49190C60091DBF
S113A140121F042AFAD20D00960701D50C80AD1C0B
S113A1501A4000D02C700268001D002AE7D170BCA0
S113A1607047FEE710B5074979441831064C7C4422
S113A170163404E0081D0A68891888470100A142C2
S10FA180F8D110BDB0020000BC020000C9
S113A400FFFFFFFFFFFFFFFFFFFFFFFFFEFFFFFF59
S113A41072B60448044901600448804762B604489F
S113A4200047000008ED00E000A00000ADA400001B
S113A43091A40000F3FCFFFF0400000000E0FF1FF4
S113A4400000000000F00DF8002801D0FFF78AFE9C
S113A45000BF00BF002000BF00BFFFF741FE00F0B7
S113A46002F80120704780B500F002F801BDFEE754
S113A4700746384600F002F8FBE7FEE780B500BF68
S113A48000BF024A11001820ABBEFBE72600020001
S113A4900548014603B4684680F3098800BF00BF3D
S113A4A000BF00BFFFF7CEFFA5EDF5FE0020014978
S113A4B008607047008104400048004719A5000067
S113A4C00048004719A500000048004719A50000EE
S113A4D00048004719A500000048004719A50000DE
S113A4E00048004719A500000048004719A50000CE
S113A4F00048004719A500000048004719A50000BE
S113A5000048004719A500000048004719A50000AD
S113A5100048004719A500000048004719A500009D
S107A520FEE7FEE769
S903A491C7
