S00D000055415254302E73726563AB
S1130000A0E9FF1FAD0700004F0200000B0800002D
S113001000000000000000000000000000000000DC
S113002000000000000000000000000017080000AD
S11300300000000000000000D5080000D708000000
S1130040750800007D080000850800008D08000088
S1130050CD080000CD080000CD080000CD08000048
S1130060950800009D080000A5080000AD080000E8
S113007099060000B5080000BD080000CD08000086
S1130080CD080000CD080000CD080000CD08000018
S1130090CD080000CD080000CD080000C508000010
S11300A0CD080000CD080000CD080000CD080000F8
S11300B0CD080000CD080000CD080000CD080000E8
S11300C070B506000C00FE252100C9B2300000F016
S11300D024F8FF2801D1FF2510E02100C9B2300027
S11300E000F04CF8FF2801D1FF2507E02100C9B238
S11300F0300000F05FF8FF2800D1FF252800C0B2CF
S113010070BD00B50100C9B230390A2901D23038B6
S113011001E0C0B23738C0B200BD30B502000B00F8
S1130120DBB2DB0702D5FF20C0B230BD1378532BFE
S113013001D0FF20F8E75378042B03D05378303BE9
S11301400A2B01D3FF20EFE7022301E0FF205B1C11
S11301501C000D00E4B2EDB2AC42E5D21800C0B20E
S1130160105C30380A2801D2FE20F0E71800C0B233
S1130170105C41380628E9D2FE20E8E770B5050096
S11301800C00A878FFF7BDFF0601E878FFF7B9FF78
S113019030430100C9B2032901D2FF2008E0C0B2F4
S11301A0E4B2241F6108884201D0FF2000E0FE2051
S11301B0C0B270BDF2B504000020070002250FE0B4
S11301C02800C0B2205CFFF79CFFC0B206012800E3
S11301D0C0B220184078FFF794FF30433F18AD1C9D
S11301E0280069460978C0B28842E9D3FFB2FF2FDC
S11301F001D1FE2000E0FF20C0B2F2BDF8B504003A
S11302000D001700002108000800FE1E12E00091F6
S11302103000C0B2205CFFF774FF3900C9B232006D
S1130220D2B2891AC91E0422514388400099084356
S11302300100761E3000C0B20428E8DA2868801E67
S1130240814201D1FE2000E0FF20C0B2F2BDFEE7F2
S1130400FFFFFFFFFFFFFFFFFFFFFFFFFEFFFFFFF9
S113041010B55649564A0B78D318C82464001B5D9E
S1130420012B03D10120534908702CE00300DBB2F7
S11304300A2B1ED103204F4B187001200B78D318C0
S1130440C824640018554C4803785B1E0C781219B4
S1130450CA2464001355494A13685B1C13600A7864
S1130460521C0A7000220270087804280BD10A700A
S113047009E0414B09786424614351181A7888547F
S11304801878401C187010BD70B5002630003C4D23
S1130490374C28782018C8214900405C01285DD1D8
S11304A028782018CA214900415C287864225043E6
S11304B02018FFF705FE0100C9B2FE293ED12978B4
S11304C06422514361184978352906D02978642279
S11304D051436118497836290BD128782018CA214C
S11304E04900425C25492878642358432018FFF7C3
S11304F085FEC0B2FE2806D001201E4908703000D7
S1130500C821490060542878642148432018407861
S113051037280DD02878642148432018407838289B
S113052006D028786421484320184078392808D117
S11305301248066002200F49087002E001200D49AC
S11305400870300029786118C8225200885428782D
S1130550401C28702878042800D12E7005480078A3
S113056070BD002003490870704700009CE1FF1F24
S113057000E0FF1F9FE1FF1F9DE1FF1F98E1FF1FA8
S11305809EE1FF1F0121C006C00E81404848016062
S1130590704738B58020800046490A6802430A60E3
S11305A04549464A13680B401360136803431360BC
S11305B0434A1368194011601168084310604148A8
S11305C001688022D2000A4302603F4801683F4A22
S11305D00A40026001688022D2040A430260016872
S11305E03B4A0A400260EF213A4A107808401070F2
S11305F0FD23394804781C40047014782340137098
S1130600DF23364A14781C401470354C25782B406F
S1130610237023780B402370324B1C7821401970CF
S1130620E02103780B400370062303701078014027
S11306301170107810702C48017800210170017835
S11306401A220A430270294C2078082101432170A0
S113065020780421014321700C20FFF793FF2078B8
S113066020210143217031BD00B521490978490693
S1130670FBD52049087000BD38B50400002505E00D
S11306802800C0B2205CFFF7EFFF6D1C2800C0B249
S1130690205C0028F4D131BD80B51548007880066F
S11306A0FBD514480078C0B2FFF7B2FE01BD0000CC
S11306B000E100E038800440FFF8FFFF04900440AC
S11306C0089004403480044004800440FFFFFFF39A
S11306D0FFFFFEFF02A006400AA0064000A006405D
S11306E005A0064006A0064001A0064003A006405F
S11306F004A0064007A0064080B5FFF74AFF0E4855
S1130700FFF7BAFF0D48FFF7B7FF05E00C48FFF706
S1130710B3FFFD20FFF725FFFFF7B6FE0100C9B2C6
S11307200129F3D0C0B20228F6D10648FFF7A4FF8E
S1130730FD20FFF716FFEFE7540800005C080000F7
S1130740640800006C08000070B40123002413E066
S11307500168001D194202D04D466D1E49190C60F6
S1130760091D121F042AFAD20D00960701D50C8028
S1130770AD1C1A4000D02C700268001D002AE7D17D
S113078070BC704710B5074979441831064C7C4455
S1130790163404E0081D0A68891888470100A1423C
S11307A0F8D110BD2C0000003800000072B60448D7
S11307B0044901600448804762B6044800470000C9
S11307C008ED00E000000000490800002D080000CA
S11307D079FFFFFFA001000000E0FF1F0000000000
S11307E000F00DF8002801D0FFF7CCFF00BF00BFD8
S11307F0002000BF00BFFFF77FFF00F002F80120D8
S1130800704780B500F002F801BDFEE707463846A0
S113081000F002F8FBE7FEE780B500BF00BF024A24
S113082011001820ABBEFBE7260002000548014674
S113083003B4684680F3098800BF00BF00BF00BF4F
S1130840FFF7CEFFA5EDF5FE0020014908607047D3
S11308500081044048656C6C6F0D0A00576F726C20
S1130860640D0A004552524F520D0A003E3E0D0AD5
S11308700000000000480047CD0800000048004781
S1130880CD08000000480047CD080000004800479C
S1130890CD08000000480047CD080000004800478C
S11308A0CD08000000480047CD080000004800477C
S11308B0CD08000000480047CD080000004800476C
S11308C0CD08000000480047CD080000004800475C
S10B08D0CD080000FEE7FEE77D
S903082DC7
