S00D000055415254302E73726563AB
S113A00000600020CDA900006FA100004BAA000051
S113A010000000000000000000000000000000003C
S113A02000000000000000000000000057AA00002B
S113A030000000000000000005AB000007AB0000BA
S113A040A5AA0000ADAA0000B5AA0000BDAA0000A0
S113A050FDAA0000FDAA0000FDAA0000FDAA000060
S113A060C5AA0000CDAA0000D5AA0000DDAA000000
S113A070CFA50000E5AA0000EDAA0000FDAA00009B
S113A080FDAA0000FDAA0000FDAA0000FDAA000030
S113A090FDAA0000FDAA0000FDAA0000F5AA000028
S113A0A0FDAA0000FDAA0000FDAA0000FDAA000010
S113A0B0FDAA0000FDAA0000FDAA0000FDAA000000
S113A0C00022030A8B420BD203098B4219D24308A4
S113A0D08B422ED2411A00D201465241104670479B
S113A0E0FF2209023FD012068B4205D31212090245
S113A0F08B4201D31212090203098B4219D300E0E7
S113A100090AC3098B4201D3CB01C01A5241830906
S113A1108B4201D38B01C01A524143098B4201D3B4
S113A1204B01C01A524103098B4201D30B01C01ADF
S113A1305241C3088B4201D3CB00C01A5241830859
S113A1408B4201D38B00C01A524143088B4201D386
S113A1504B00C01A5241884200D3401A5241CFD218
S113A16001461046704708B500F002F808BDFEE746
S113A170704770B40123002413E00168001D1942E4
S113A18002D04D466D1E49190C60091D121F042A88
S113A190FAD20D00960701D50C80AD1C1A4000D0F0
S111A1A02C700268001D002AE7D170BC7047C5
S113A400FFFFFFFFFFFFFFFFFFFFFFFFFEFFFFFF59
S113A4100121C006C00E8140724801607047F1B549
S113A42081B01F2420000026F64339E0A0256D04E6
S113A430280001992200D2B2521C5143FFF740FE7A
S113A4400700002F00D1012728002100C9B2491CB0
S113A4507943FFF735FE0199401AB04208D28021B2
S113A46089018F4204D206005F4807605F48047088
S113A4707F1C0199009128002100C9B2491C79432D
S113A480FFF71EFE0099081AB04208D28021890104
S113A4908F4204D206005448076054480470641E76
S113A4A02000C0B20328C1D2F3BD00B550490978D9
S113A4B04906FBD54F49087000BDF8B5FFF7AFFF5B
S113A4C01F20494A1168090A014012686B461A7034
S113A4D080229200484B1C6814431C60474B484C34
S113A4E025681D402560256815432560454C256871
S113A4F02B40236023681A432260434A1368802454
S113A500E4001C431460414A1368414C1C4014602D
S113A51013688024E4041C43146013683D4C1C40FD
S113A5201460EF233C4C22781A402270FD253B4AEC
S113A53016782E401670267835402570DF25384C65
S113A54026782E402670374E37783D403570357862
S113A5501D403570344D2E7833402B70E023157830
S113A5601D401570214D2D7805401570227813403B
S113A570237022780840104320702C480178002171
S113A580017001786A4612780A430270284C2078D8
S113A59008210143217020780421014321700C20FB
S113A5A0FFF736FF2078202101432170F1BD38B533
S113A5B00400002505E02800C0B2205CFFF775FF09
S113A5C06D1C2800C0B2205C0028F4D131BD80B5D8
S113A5D0074800788006FBD506480078C0B200F032
S113A5E029F801BD00E100E09CE1FF1FA4E1FF1F89
S113A5F004A0064007A0064038800440FFF8FFFF8F
S113A60004900440089004403480044004800440D2
S113A610FFFFFFF3FFFFFEFF02A006400AA0064073
S113A62000A0064005A0064006A0064001A0064082
S113A63003A0064030B55C495C4A0B78D318C824A3
S113A64064001B5D0A2B03D10120594908703DE0C9
S113A6500300DBB20A2B2FD10A200B78D318C824AD
S113A66064001855534803785B1E0C781419CA25E6
S113A6706D006355504B1C7864256C431419647841
S113A680312C0DD01C7864256C4314196478322C59
S113A69006D01B7864246343D2185278332A03D13A
S113A6A0464A13685B1C13600A78521C9207920F87
S113A6B00A700021017009E03E4B0978642461436B
S113A6C051181A7888541878401C187030BDF8B5A1
S113A6D00B252800384E354C30782018C821490005
S113A6E0405C0A285AD1324F3878012856D0307845
S113A6F02018CA214900415C307864225043201854
S113A70000F0DBF80100C9B2FE293AD13870307884
S113A7106421484320184078352806D030786421D5
S113A720484320184078362810D130782018CA21A0
S113A7304900425C2149307864235843201800F0D2
S113A740DDF8C0B2FE2801D00120387030786421D1
S113A75048432018407837280DD030786421484386
S113A76020184078382806D03078642148432018CF
S113A7704078392807D10220387000200F4908603A
S113A78001E00120387030782018C8214900455470
S113A7903078401C8007800F307001E00448057059
S113A7A003480078F2BD0000A0E1FF1F00E0FF1F96
S113A7B0A3E1FF1FA1E1FF1FA2E1FF1F98E1FF1F1B
S113A7C000B50100C9B230390A2901D2303801E09C
S113A7D0C0B23738C0B200BD30B502000B00DBB2E6
S113A7E0DB0702D5FF20C0B230BD1378532B01D054
S113A7F0FF20F8E75378042B03D05378303B0A2B1F
S113A80001D3FF20EFE7022301E0FF205B1C1C00C3
S113A8100D00E4B2EDB2AC42E5D21800C0B2105C57
S113A82030380A2801D2FE20F0E71800C0B2105CCC
S113A83041380628E9D2FE20E8E770B505000C008F
S113A840A878FFF7BDFF0601E878FFF7B9FF3043AA
S113A8500100C9B2032901D2FF2008E0C0B2E4B26A
S113A860241F6108884201D0FF2000E0FE20C0B20E
S113A87070BDF2B504000020070002250FE0280097
S113A880C0B2205CFFF79CFFC0B206012800C0B232
S113A89020184078FFF794FF30433F18AD1C280080
S113A8A069460978C0B28842E9D3FFB2FF2F01D1CB
S113A8B0FE2000E0FF20C0B2F2BD70B506000C001F
S113A8C0FE252100C9B23000FFF786FFFF2801D121
S113A8D0FF2510E02100C9B23000FFF7AEFFFF28CA
S113A8E001D1FF2507E02100C9B23000FFF7C1FF05
S113A8F0FF2800D1FF252800C0B270BDF8B50400C0
S113A9000D00170000200100FE1E12E0009130002F
S113A910C0B2205CFFF754FF3900C9B23200D2B292
S113A920891AC91E04225143884000990843010032
S113A930761E3000C0B20428E8DA2868814201D1CA
S113A940FE2000E0FF20C0B2F2BD000010B50024DC
S113A950E1204002FFF7B1FD0F48FFF728FE02E0B7
S113A9600E48FFF724FEE4B2012C12D0FFF7AFFE2D
S113A97004002000C0B20128F2D02000C0B2022896
S113A98003D02000C0B2FE28EDD10548FFF70FFE2A
S113A990E9E7002010BD00BF00AA000094AA00004F
S113A9A09CAA000010B5074979441831064C7C4430
S113A9B0163404E0081D0A68891888470100A1427A
S113A9C0F8D110BD2C0000003800000072B6044815
S113A9D0044901600448804762B604480047000007
S113A9E008ED00E000A0000089AA00006DAA0000A4
S113A9F083F7FFFFA801000000E0FF1F0000000034
S113AA000D0A53656E6420796F7572205352454365
S113AA102066696C653A202E2E2E0D0A0000000077
S113AA2000F00DF8002801D0FFF7BCFF00BF00BF05
S113AA30002000BF00BFFFF789FF00F002F80120EB
S113AA40704780B500F002F801BDFEE707463846BE
S113AA5000F002F8FBE7FEE780B500BF00BF024A42
S113AA6011001820ABBEFBE7260002000548014692
S113AA7003B4684680F3098800BF00BF00BF00BF6D
S113AA80FFF7CEFFA5EDF5FE0020014908607047F1
S113AA90008104404552524F520D0A003E3E0D0AB9
S113AAA00000000000480047FDAA000000480047DD
S113AAB0FDAA000000480047FDAA00000048004726
S113AAC0FDAA000000480047FDAA00000048004716
S113AAD0FDAA000000480047FDAA00000048004706
S113AAE0FDAA000000480047FDAA000000480047F6
S113AAF0FDAA000000480047FDAA000000480047E6
S10BAB00FDAA0000FEE7FEE7D8
S903AA6DE5
